:020000040800F2
:100000000000022079120008C9110008D11100086F
:10001000D9110008E1110008E911000800000000F2
:10002000000000000000000000000000F1110008C6
:10003000FF110008000000000D1200081B1200084C
:10004000C9120008C9120008C9120008C912000824
:10005000C9120008C9120008C9120008C912000814
:10006000C9120008C9120008C9120008C912000804
:10007000C9120008C9120008C9120008C9120008F4
:10008000C9120008C9120008C9120008C9120008E4
:10009000C9120008C9120008C9120008C9120008D4
:1000A000C9120008C9120008C9120008C9120008C4
:1000B000C9120008C9120008C9120008C9120008B4
:1000C000C9120008C9120008C9120008C9120008A4
:1000D000C9120008C9120008C9120008C912000894
:1000E000C9120008C9120008C9120008C912000884
:1000F000C9120008C9120008C9120008C912000874
:10010000C9120008C9120008C9120008C912000863
:10011000C9120008C9120008C9120008C912000853
:10012000C9120008C9120008C9120008C912000843
:10013000C9120008C9120008C9120008C912000833
:10014000C9120008C9120008C9120008C912000823
:10015000C9120008C9120008C9120008C912000813
:10016000C9120008C9120008C9120008C912000803
:10017000C9120008C9120008C912000800000000D6
:08018000C9120008C9120008B1
:1001880010B5054C237833B9044B13B10448AFF3C9
:1001980000800123237010BD0C0000200000000027
:1001A800CC12000808B5034B1BB103490348AFF351
:1001B800008008BD0000000010000020CC120008DC
:1001C80053B94AB9002908BF00281CBF4FF0FF31B6
:1001D8004FF0FF3000F088B9ADF1080C6DE904CE9E
:1001E80000F006F8DDF804E0DDE9022304B070470A
:1001F8002DE9F047089D8E4604468846002B4AD1D3
:100208008A42174662D9B2FA82F64EB1C6F1200385
:1002180001FA06F820FA03F3B74043EA0808B440A5
:100228004FEA174E1FFA87FCB8FBFEF1230C0EFBB2
:10023800118843EA084301FB0CF29A4209D9FB18DA
:1002480001F1FF3080F0EA809A4240F2E7800239FB
:100258003B449A1AA3B2B2FBFEF00EFB102243EA0B
:10026800024300FB0CFC9C4509D9FB1800F1FF3246
:1002780080F0D6809C4540F2D3803B44023840EA67
:100288000140A3EB0C0300211DB1F3400022C5E996
:100298000032BDE8F0878B4205D90DB1C5E90001F0
:1002A80000210846F5E7B3FA83F1002946D17345E2
:1002B80002D3824200F20581841A6EEB0302012008
:1002C8009046002DE5D0C5E90048E2E7002A00F095
:1002D8009080B2FA82F6002E40F0A4808A1A030CAD
:1002E8004FEA174E80B2BCB20121B2FBFEFC0EFBF6
:1002F8001C2243EA024304FB0CF29A4207D9FB187A
:100308000CF1FF3802D29A4200F2E080C4469B1AF0
:10031800B3FBFEF20EFB123340EA034302FB04F484
:100328009C4207D9FB1802F1FF3002D29C4200F22E
:10033800CA8002461B1B42EA0C40A5E7C1F1200611
:100348008B4022FA06F71F430EFA01F420FA06F34F
:100358002EFA06FE4FEA1749234300FA01F81FFA5E
:1003680087FCBEFBF9F01C0C09FB10EE44EA0E44B6
:1003780000FB0CFEA64502FA01F209D93C1900F16E
:10038800FF3A80F09C80A64540F2998002383C44B0
:10039800A4EB0E041FFA83FEB4FBF9F309FB134424
:1003A8004EEA044403FB0CFCA44508D93C1903F1AC
:1003B800FF3E80F08280A4457FD9023B3C4443EA5B
:1003C8000040A4EB0C04A0FB02EC64457346E14634
:1003D80062D35FD05DB1B8EB030264EB090404FAA1
:1003E80006F622FA01F31E43CC40C5E90064002159
:1003F8004FE7B1FBF2FC010C41EA0E4180B240EA42
:1004080001423B4638463C46B846BE462026B1FB2C
:10041800F7F1A2EB080241EA0C4166E7014618E74A
:1004280010462CE7C6F120022EFA02F3B740B1407D
:1004380020FA02F24FEA174E0A43B3FBFEF8BCB2A9
:100448000EFB1833110C41EA034108FB04F9B040D4
:1004580089454FEA104380B23ED9791808F1FF3C2C
:1004680001D289451FD8A1EB0901B1FBFEF909FBAF
:1004780004F80EFB191192B242EA0142424529D210
:10048800BA1809F1FF31C4D24245C2D2A9F102011A
:100498003A44BEE7F0459DD2BEEB02036CEB070C75
:1004A8000138E14696E7A7EB09094944A8F1020C8F
:1004B800B1FBFEF909FB04F8DBE773467FE750461A
:1004C80066E70846FDE63B44023A33E7ACF1020C26
:1004D8003B441CE749469CE7A1EB0901C446B1FB34
:1004E800FEF909FB04F8C4E7704700BF024403465D
:1004F800934200D1704703F8011BF9E770B50D4D21
:100508000D4C641BA4100026A64209D10B4D0C4CBF
:1005180000F0D8FE641BA4100026A64205D170BDC9
:1005280055F8043B98470136EEE755F8043B9847E1
:100538000136F2E7FC120008FC120008FC12000861
:100548000013000880B400AF064BD3F88830054A82
:1005580043F47003C2F8883000BFBD465DF8047BE1
:10056800704700BF00ED00E080B586B000AF78604E
:100578007B68002B01D1012367E27B681B6803F0CD
:100588000103002B75D0884B9B6803F00C03042BE8
:100598000CD0854B9B6803F00C03082B12D1824BBF
:1005A8005B6803F48003B3F5800F0BD17E4B1B68A7
:1005B80003F40033002B5BD07B685B68002B57D1BA
:1005C800012342E27B685B68B3F5803F06D1764B36
:1005D8001B68754A43F4803313601DE07B685B68D1
:1005E800B3F5A02F0CD1704B1B686F4A43F48023DE
:1005F80013606D4B1B686C4A43F4803313600BE047
:10060800694B1B68684A23F480331360664B1B6888
:10061800654A23F4802313607B685B68002B13D042
:1006280000F012FD386108E000F00EFD02463B695B
:10063800D31A642B01D9032307E25B4B1B6803F42D
:100648000033002BF0D014E000F0FEFC386108E025
:1006580000F0FAFC02463B69D31A642B01D9032344
:10066800F3E1514B1B6803F40033002BF0D100E099
:1006780000BF7B681B6803F00203002B63D04A4B62
:100688009B6803F00C03002B0BD0474B9B6803F0CF
:100698000C03082B1CD1444B5B6803F48003002B2C
:1006A80016D1414B1B6803F00203002B05D07B6871
:1006B800DB68012B01D00123C7E13B4B1B6823F00A
:1006C800F8027B681B69DB00374913430B603AE08B
:1006D8007B68DB68002B20D0344B01221A6000F0C5
:1006E800B3FC386108E000F0AFFC02463B69D31A5E
:1006F800022B01D90323A8E12B4B1B6803F002034B
:10070800002BF0D0284B1B6823F0F8027B681B698C
:10071800DB00254913430B6015E0244B00221A60C7
:1007280000F092FC386108E000F08EFC02463B695C
:10073800D31A022B01D9032387E11B4B1B6803F053
:100748000203002BF0D17B681B6803F00803002B21
:1007580036D07B685B69002B16D0154B01221A60D6
:1007680000F072FC386108E000F06EFC02463B695C
:10077800D31A022B01D9032367E10B4B5B6F03F0FC
:100788000203002BF0D01BE0094B00221A6000F096
:100798005BFC38610EE000F057FC02463B69D31A57
:1007A800022B07D9032350E10038024000004742DA
:1007B800800E4742884B5B6F03F00203002BEAD19F
:1007C8007B681B6803F00403002B00F0978000236C
:1007D800FB75814B1B6C03F08053002B0FD100235A
:1007E800BB607D4B1B6C7C4A43F0805313647A4B8F
:1007F8001B6C03F08053BB60BB680123FB75774B10
:100808001B6803F48073002B18D1744B1B68734A60
:1008180043F48073136000F017FC386108E000F0BF
:1008280013FC02463B69D31A022B01D903230CE1BE
:100838006A4B1B6803F48073002BF0D07B689B68BD
:10084800012B06D1644B1B6F634A43F00103136706
:100858001CE07B689B68052B0CD15F4B1B6F5E4AC5
:1008680043F0040313675C4B1B6F5B4A43F00103BF
:1008780013670BE0584B1B6F574A23F001031367AC
:10088800554B1B6F544A23F0040313677B689B681E
:10089800002B15D000F0D8FB38610AE000F0D4FB3B
:1008A80002463B69D31A41F28832934201D90323A5
:1008B800CBE0494B1B6F03F00203002BEED014E092
:1008C80000F0C2FB38610AE000F0BEFB02463B695B
:1008D800D31A41F28832934201D90323B5E03E4B43
:1008E8001B6F03F00203002BEED1FB7D012B05D11A
:1008F800394B1B6C384A23F0805313647B689B691F
:10090800002B00F0A180344B9B6803F00C03082BEC
:100918005CD07B689B69022B41D1314B00221A6065
:1009280000F092FB386108E000F08EFB02463B695C
:10093800D31A022B01D9032387E0274B1B6803F046
:100948000073002BF0D17B68DA697B681B6A1A4355
:100958007B685B6A9B011A437B689B6A5B08013B67
:100968001B041A437B68DB6A1B061B4913434B6055
:100978001B4B01221A6000F067FB386108E000F0A9
:1009880063FB02463B69D31A022B01D903235CE0BF
:10099800114B1B6803F00073002BF0D054E0104B90
:1009A80000221A6000F050FB386108E000F04CFBB0
:1009B80002463B69D31A022B01D9032345E0064BB3
:1009C8001B6803F00073002BF0D13DE07B689B6946
:1009D800012B07D1012338E00038024000700040A5
:1009E800600047421B4B5B68FB607B689B69012B7F
:1009F80028D0FB6803F480027B68DB699A4221D126
:100A0800FB6803F03F027B681B6A9A421AD1FA68B6
:100A180047F6C07313407A68526A9201934211D123
:100A2800FB6803F440327B689B6A5B08013B1B044C
:100A38009A4207D1FB6803F070627B68DB6A1B0689
:100A48009A4201D0012300E0002318461837BD461A
:100A580080BD00BF0038024080B584B000AF786028
:100A680039607B68002B01D10123CCE0684B1B68FF
:100A780003F007033A689A420CD9654B3A68D2B238
:100A88001A70634B1B6803F007033A689A4201D057
:100A98000123B8E07B681B6803F00203002B20D019
:100AA8007B681B6803F00403002B05D0594B9B6837
:100AB800584A43F4E05393607B681B6803F00803CB
:100AC800002B05D0534B9B68524A43F46043936014
:100AD800504B9B6823F0F0027B689B684D49134399
:100AE8008B607B681B6803F00103002B44D07B6894
:100AF8005B68012B07D1474B1B6803F40033002BBD
:100B080019D101237FE07B685B68022B03D07B68E7
:100B18005B68032B07D13F4B1B6803F00073002B66
:100B280009D101236FE03B4B1B6803F00203002B44
:100B380001D1012367E0374B9B6823F003027B68F0
:100B48005B68344913438B6000F07EFAF8600AE072
:100B580000F07AFA0246FB68D31A41F288329342CF
:100B680001D903234FE02B4B9B6803F00C027B68F1
:100B78005B689B009A42EBD1254B1B6803F0070387
:100B88003A689A420CD2224B3A68D2B21A70204B79
:100B98001B6803F007033A689A4201D0012332E048
:100BA8007B681B6803F00403002B08D0194B9B6873
:100BB80023F4E0527B68DB68164913438B607B683B
:100BC8001B6803F00803002B09D0124B9B6823F421
:100BD80060427B681B69DB000E4913438B6000F0A1
:100BE80021F802460B4B9B681B0903F00F030A49C7
:100BF800CB5C22FA03F3094A1360094B1B681846B9
:100C080000F0DEF9002318461037BD4680BD00BF4E
:100C1800003C024000380240E412000800000020B6
:100C2800040000202DE9B04F90B000AF00237B6393
:100C38000023FB6300233B630023BB63594B9B6882
:100C480003F00C03082B0DD0082B00F2A180002B19
:100C580002D0042B03D09BE0534BBB639BE0534B68
:100C6800BB6398E04F4B5B6803F03F037B634D4BDE
:100C78005B6803F48003002B28D04A4B5B689B0910
:100C880000223B627A623B6AC3F308000021474BAB
:100C980003FB01F2002300FB03F31344434AA0FBC8
:100CA8000212FA620A46BA62FA6A1344FB627B6B62
:100CB8000022BB61FA61D7E90623D7E90A01FFF7E9
:100CC8007FFA02460B461346FB6353E0354B5B68DD
:100CD8009B0900223B617A613B69C3F3080A4FF024
:100CE800000B52465B464FF000004FF000015901DF
:100CF80041EAD261500102460B46B2EB0A0863EBA7
:100D08000B094FF000024FF000034FEA891343EA42
:100D180098634FEA8812B2EB080463EB09054FF0B9
:100D280000024FF00003EB0043EA5473E20014465C
:100D38001D4614EB0A033B6045EB0B037B604FF049
:100D480000024FF00003D7E9004529468B022146EF
:100D580043EA915321468A02104619467B6B0022CA
:100D6800BB60FA60D7E90223FFF72AFA02460B466E
:100D78001346FB630B4B5B681B0C03F00303013347
:100D88005B003B63FA6B3B6BB2FBF3F3BB6302E0C4
:100D9800054BBB6300BFBB6B18464037BD46BDE87B
:100DA800B08F00BF003802400024F40040787D0175
:100DB80080B485B000AF78607B6803F00703FB6000
:100DC8000C4BDB68BB60BA684FF6FF031340BB608F
:100DD800FB681A02BB68134343F0BF6343F4003354
:100DE800BB60044ABB68D36000BF1437BD465DF8DA
:100DF800047B704700ED00E080B400AF044BDB6873
:100E08001B0A03F007031846BD465DF8047B7047CC
:100E180000ED00E080B483B000AF03463960FB7199
:100E280097F90730002B0ADB3B68DAB20C4997F9CF
:100E380007301201D2B20B4483F800230AE03B6862
:100E4800DAB20849FB7903F00F03043B1201D2B26E
:100E58000B441A7600BF0C37BD465DF8047B70471B
:100E680000E100E000ED00E080B489B000AFF86078
:100E7800B9607A60FB6803F00703FB61FB69C3F1A3
:100E88000703042B28BF0423BB61FB690433062B2B
:100E980002D9FB69033B00E000237B614FF0FF327E
:100EA800BB6902FA03F3DA43BB681A407B699A40CC
:100EB8004FF0FF317B6901FA03F3D9437B680B409C
:100EC800134318462437BD465DF8047B704700007D
:100ED80080B582B000AF78607B68013BB3F1807F5A
:100EE80001D301230FE00A4A7B68013B53600F21BD
:100EF8004FF0FF30FFF78EFF054B00229A60044B3E
:100F080007221A60002318460837BD4680BD00BF77
:100F180010E000E080B582B000AF78607868FFF735
:100F280047FF00BF0837BD4680BD80B586B000AF1B
:100F38000346B9607A60FB7300237B61FFF75CFFAF
:100F480078617A68B9687869FFF78EFF024697F981
:100F58000F3011461846FFF75DFF00BF1837BD4632
:100F680080BD80B582B000AF78607868FFF7B0FFC9
:100F7800034618460837BD4680BD000080B500AF5F
:100F88000E4B1B680D4A43F4007313600B4B1B6830
:100F98000A4A43F480631360084B1B68074A43F40A
:100FA800807313600320FFF7B5FF0F2000F008F8E7
:100FB80000F036F90023184680BD00BF003C02400F
:100FC80080B582B000AF7860124B1A68124B1B785C
:100FD80019464FF47A73B3FBF1F3B2FBF3F31846F7
:100FE800FFF7BFFF0346002B01D001230EE07B680B
:100FF8000F2B0AD8002279684FF0FF30FFF795FFD2
:10100800064A7B681360002300E00123184608376E
:10101800BD4680BD0000002008000020040000201C
:1010280080B400AF064B1B781A46064B1B68134466
:10103800044A136000BFBD465DF8047B704700BFDB
:10104800080000202800002080B400AF034B1B6874
:101058001846BD465DF8047B704700BF2800002095
:1010680080B500AFFFF78AFF00F004F800F06CF8D5
:1010780000BFFDE780B594B000AF07F12003302230
:1010880000211846FFF732FA07F10C0300221A6014
:101098005A609A60DA601A610023BB60284B1B6CA7
:1010A800274A43F080531364254B1B6C03F080538D
:1010B800BB60BB6800237B60224B1B68214A43F45A
:1010C800804313601F4B1B6803F480437B607B687D
:1010D80001233B624FF480337B620223BB634FF4EE
:1010E8008003FB6319233B644FF4A8737B640223DA
:1010F800BB640423FB6407F120031846FFF734FAA6
:101108000346002B01D000F055F80F23FB600223A3
:101118003B6100237B614FF4A053BB614FF48053C4
:10112800FB6107F10C0305211846FFF795FC034600
:10113800002B01D000F03EF800BF5037BD4680BDFF
:10114800003802400070004080B485B000AF002332
:10115800FB60174B1B6B164A43F004031363144BD5
:101168001B6B03F00403FB60FB680023BB60104BA0
:101178001B6B0F4A43F0800313630D4B1B6B03F08B
:101188008003BB60BB6800237B60094B1B6B084A6C
:1011980043F001031363064B1B6B03F001037B60F1
:1011A8007B6800BF1437BD465DF8047B704700BFFD
:1011B8000038024080B400AF72B600BF00BFFDE740
:1011C80080B400AF00BFFDE780B400AF00BFFDE70B
:1011D80080B400AF00BFFDE780B400AF00BFFDE7FB
:1011E80080B400AF00BFFDE780B400AF00BFBD46CC
:1011F8005DF8047B704780B400AF00BFBD465DF862
:10120800047B704780B400AF00BFBD465DF8047B27
:10121800704780B500AFFFF703FF00BF80BD000037
:1012280080B483B000AF00237B60104B5B6C0F4A27
:1012380043F4804353640D4B5B6C03F480437B6041
:101248007B6800233B60094B1B6C084A43F08053C2
:101258001364064B1B6C03F080533B603B6800BF74
:101268000C37BD465DF8047B704700BF003802406C
:10127800DFF834D0FFF766F90C480D490D4A002312
:1012880002E0D458C4500433C4188C42F9D30A4A33
:101298000A4C002301E013600432A242FBD3FFF79B
:1012A8002DF9FFF7DDFE7047000002200000002046
:1012B8000C000020041300080C0000202C00002063
:1012C800FEE70000F8B500BFF8BC08BC9E467047B2
:0C12D800F8B500BFF8BC08BC9E4670478B
:1012E40000000000000000000102030406070809D2
:0812F40004EFFF7F0100000080
:0412FC00AD01000838
:041300008901000857
:0C1304000024F4001000000001000000B4
:040000050800127964
:00000001FF
