:020000040800F2
:1000000000000220553E0008D93A0008E13A0008F5
:10001000E93A0008F13A0008F93A00080000000047
:10002000000000000000000000000000013B00088C
:100030000F3B0008000000001D3B00082B3B0008A0
:10004000A53E0008A53E0008A53E0008A53E000804
:10005000A53E0008A53E0008A53E0008A53E0008F4
:10006000A53E0008A53E0008A53E0008A53E0008E4
:10007000A53E0008A53E0008A53E0008A53E0008D4
:10008000A53E0008A53E0008A53E0008A53E0008C4
:10009000A53E0008A53E0008A53E0008A53E0008B4
:1000A000A53E0008A53E0008A53E0008A53E0008A4
:1000B000A53E0008A53E0008A53E0008A53E000894
:1000C000A53E0008A53E0008A53E0008A53E000884
:1000D000A53E0008A53E0008A53E0008A53E000874
:1000E000A53E0008A53E0008A53E0008A53E000864
:1000F000A53E0008A53E0008A53E0008A53E000854
:10010000A53E0008A53E0008A53E0008A53E000843
:10011000A53E0008A53E0008A53E0008A53E000833
:10012000A53E0008A53E0008A53E0008A53E000823
:10013000A53E0008A53E0008A53E0008A53E000813
:10014000A53E0008A53E0008A53E0008A53E000803
:10015000A53E0008A53E0008A53E0008A53E0008F3
:10016000A53E0008A53E0008A53E0008A53E0008E3
:10017000A53E0008A53E0008A53E000800000000BE
:08018000A53E0008A53E0008A1
:1001900010B5054C237833B9044B13B10448AFF3C1
:1001A00000800123237010BDF0010020000000003A
:1001B000887E000808B5034B1BB103490348AFF321
:1001C000008008BD00000000F4010020887E0008C7
:1001D00053B94AB9002908BF00281CBF4FF0FF31AE
:1001E0004FF0FF3000F088B9ADF1080C6DE904CE96
:1001F00000F006F8DDF804E0DDE9022304B0704702
:100200002DE9F047089D8E4604468846002B4AD1CA
:100210008A42174662D9B2FA82F64EB1C6F120037D
:1002200001FA06F820FA03F3B74043EA0808B4409D
:100230004FEA174E1FFA87FCB8FBFEF1230C0EFBAA
:10024000118843EA084301FB0CF29A4209D9FB18D2
:1002500001F1FF3080F0EA809A4240F2E7800239F3
:100260003B449A1AA3B2B2FBFEF00EFB102243EA03
:10027000024300FB0CFC9C4509D9FB1800F1FF323E
:1002800080F0D6809C4540F2D3803B44023840EA5F
:100290000140A3EB0C0300211DB1F3400022C5E98E
:1002A0000032BDE8F0878B4205D90DB1C5E90001E8
:1002B00000210846F5E7B3FA83F1002946D17345DA
:1002C00002D3824200F20581841A6EEB0302012000
:1002D0009046002DE5D0C5E90048E2E7002A00F08D
:1002E0009080B2FA82F6002E40F0A4808A1A030CA5
:1002F0004FEA174E80B2BCB20121B2FBFEFC0EFBEE
:100300001C2243EA024304FB0CF29A4207D9FB1871
:100310000CF1FF3802D29A4200F2E080C4469B1AE8
:10032000B3FBFEF20EFB123340EA034302FB04F47C
:100330009C4207D9FB1802F1FF3002D29C4200F226
:10034000CA8002461B1B42EA0C40A5E7C1F1200609
:100350008B4022FA06F71F430EFA01F420FA06F347
:100360002EFA06FE4FEA1749234300FA01F81FFA56
:1003700087FCBEFBF9F01C0C09FB10EE44EA0E44AE
:1003800000FB0CFEA64502FA01F209D93C1900F166
:10039000FF3A80F09C80A64540F2998002383C44A8
:1003A000A4EB0E041FFA83FEB4FBF9F309FB13441C
:1003B0004EEA044403FB0CFCA44508D93C1903F1A4
:1003C000FF3E80F08280A4457FD9023B3C4443EA53
:1003D0000040A4EB0C04A0FB02EC64457346E1462C
:1003E00062D35FD05DB1B8EB030264EB090404FA99
:1003F00006F622FA01F31E43CC40C5E90064002151
:100400004FE7B1FBF2FC010C41EA0E4180B240EA39
:1004100001423B4638463C46B846BE462026B1FB24
:10042000F7F1A2EB080241EA0C4166E7014618E742
:1004300010462CE7C6F120022EFA02F3B740B14075
:1004400020FA02F24FEA174E0A43B3FBFEF8BCB2A1
:100450000EFB1833110C41EA034108FB04F9B040CC
:1004600089454FEA104380B23ED9791808F1FF3C24
:1004700001D289451FD8A1EB0901B1FBFEF909FBA7
:1004800004F80EFB191192B242EA0142424529D208
:10049000BA1809F1FF31C4D24245C2D2A9F1020112
:1004A0003A44BEE7F0459DD2BEEB02036CEB070C6D
:1004B0000138E14696E7A7EB09094944A8F1020C87
:1004C000B1FBFEF909FB04F8DBE773467FE7504612
:1004D00066E70846FDE63B44023A33E7ACF1020C1E
:1004E0003B441CE749469CE7A1EB0901C446B1FB2C
:1004F000FEF909FB04F8C4E7704700BF10F8012BB0
:1005000011F8013B012A28BF9A42F7D0D01A704750
:1005100001F0FF01102A2BDB10F0070F08D010F8B4
:10052000013B013A8B422DD010F0070F42B3F6D1B8
:10053000F0B441EA012141EA014122F007047FF0D1
:1005400000070023F0E80256083C85EA010586EA28
:10055000010685FA47F5A3FA87F586FA47F6A5FA64
:1005600087F68EB9EED1F0BC01F0FF0102F0070270
:1005700032B110F8013B013A83EA010313B1F8D11B
:100580000020704701387047002D06BF35460338FC
:10059000073815F0010F07D1013015F4807F02BF35
:1005A000013015F4C03F0130F0BC0138704700BF86
:1005B00081F0004102E000BF83F0004330B54FEA14
:1005C00041044FEA430594EA050F08BF90EA020F81
:1005D0001FBF54EA000C55EA020C7FEA645C7FEA14
:1005E000655C00F0E2804FEA5454D4EB5555B8BF37
:1005F0006D420CDD2C4480EA020281EA030382EAA8
:10060000000083EA010180EA020281EA0303362D39
:1006100088BF30BD11F0004F4FEA01314FF4801C0C
:100620004CEA113102D0404261EB410113F0004F1E
:100630004FEA03334CEA133302D0524263EB4303D5
:1006400094EA050F00F0A780A4F10104D5F1200E73
:100650000DDB02FA0EFC22FA05F2801841F10001CE
:1006600003FA0EF2801843FA05F359410EE0A5F1A2
:1006700020050EF1200E012A03FA0EFC28BF4CF0D3
:10068000020C43FA05F3C01851EBE37101F0004589
:1006900007D54FF0000EDCF1000C7EEB00006EEB96
:1006A0000101B1F5801F1BD3B1F5001F0CD3490820
:1006B0005FEA30004FEA3C0C04F101044FEA445277
:1006C00012F5800F80F09A80BCF1004F08BF5FEAFE
:1006D000500C50F1000041EB045141EA050130BDDE
:1006E0005FEA4C0C404141EB0101013C28BFB1F5F0
:1006F000801FE9D291F0000F04BF01460020B1FA3B
:1007000081F308BF2033A3F10B03B3F120020CDA0D
:100710000C3208DD02F1140CC2F10C0201FA0CF0EB
:1007200021FA02F10CE002F11402D8BFC2F1200C50
:1007300001FA02F120FA0CFCDCBF41EA0C01904006
:10074000E41AA2BF01EB0451294330BD6FEA04044F
:100750001F3C1CDA0C340EDC04F11404C4F120023A
:1007600020FA04F001FA02F340EA030021FA04F34C
:1007700045EA030130BDC4F10C04C4F1200220FAA3
:1007800002F001FA04F340EA0300294630BD21FAE1
:1007900004F0294630BD94F0000F83F4801306BFA7
:1007A00081F480110134013D4EE77FEA645C18BF9B
:1007B0007FEA655C29D094EA050F08BF90EA020F32
:1007C00005D054EA000C04BF1946104630BD91EA2A
:1007D000030F1EBF0021002030BD5FEA545C05D12D
:1007E0004000494128BF41F0004130BD14F580046C
:1007F0003CBF01F5801130BD01F0004545F0FE41E0
:1008000041F470014FF0000030BD7FEA645C1ABF14
:10081000194610467FEA655C1CBF0B46024650EA4B
:10082000013406BF52EA033591EA030F41F4002177
:1008300030BD00BF90F0000F04BF0021704730B5FD
:100840004FF4806404F132044FF000054FF00001D2
:1008500050E700BF90F0000F04BF0021704730B593
:100860004FF4806404F1320410F0004548BF404268
:100870004FF000013EE700BF42004FEAE2014FEABD
:1008800031014FEA02701FBF12F07F4393F07F4F98
:1008900081F06051704732F07F4208BF704793F09B
:1008A0007F4F04BF41F40021704730B54FF46074AE
:1008B00001F0004521F000411CE700BF50EA0102B1
:1008C00008BF704730B54FF000050AE050EA01025A
:1008D00008BF704730B511F0004502D5404261EBCA
:1008E00041014FF4806404F132045FEA915C3FF40B
:1008F000D8AE4FF003025FEADC0C18BF03325FEAA8
:10090000DC0C18BF033202EBDC02C2F1200300FA58
:1009100003FC20FA02F001FA03FE40EA0E0021FA7D
:1009200002F11444BDE600BF70B54FF0FF0C4CF46B
:10093000E06C1CEA11541DBF1CEA135594EA0C0F1D
:1009400095EA0C0F00F0DEF82C4481EA030621EA58
:100950004C5123EA4C5350EA013518BF52EA033593
:1009600041F4801143F4801338D0A0FB02CE4FF045
:100970000005E1FB02E506F00042E0FB03E54FF075
:100980000006E1FB03569CF0000F18BF4EF0010E6D
:10099000A4F1FF04B6F5007F64F5407404D25FEA69
:1009A0004E0E6D4146EB060642EAC62141EA55511C
:1009B0004FEAC52040EA5E504FEACE2EB4F1FD0C5E
:1009C00088BFBCF5E06F1ED8BEF1004F08BF5FEADC
:1009D000500E50F1000041EB045170BD06F000468E
:1009E00046EA010140EA020081EA0301B4EB5C043B
:1009F000C2BFD4EB0C0541EA045170BD41F4801133
:100A00004FF0000E013C00F3AB8014F1360FDEBF57
:100A1000002001F0004170BDC4F10004203C35DA33
:100A20000C341BDC04F11404C4F1200500FA05F3B6
:100A300020FA04F001FA05F240EA020001F0004257
:100A400021F0004110EBD37021FA04F642EB0601CD
:100A50005EEA430E08BF20EAD37070BDC4F10C04F7
:100A6000C4F1200500FA04F320FA05F001FA04F2BB
:100A700040EA020001F0004110EBD37041F10001A7
:100A80005EEA430E08BF20EAD37070BDC4F12005B2
:100A900000FA05F24EEA020E20FA04F301FA05F21A
:100AA00043EA020321FA04F001F0004121FA04F2C2
:100AB00020EA020000EBD3705EEA430E08BF20EA92
:100AC000D37070BD94F0000F0FD101F000464000CC
:100AD00041EB010111F4801F08BF013CF7D041EA4E
:100AE000060195F0000F18BF704703F00046520052
:100AF00043EB030313F4801F08BF013DF7D043EA23
:100B00000603704794EA0C0F0CEA135518BF95EAD8
:100B10000C0F0CD050EA410618BF52EA4306D1D15F
:100B200081EA030101F000414FF0000070BD50EA7E
:100B3000410606BF1046194652EA430619D094EA08
:100B40000C0F02D150EA013613D195EA0C0F05D1F2
:100B500052EA03361CBF104619460AD181EA030146
:100B600001F0004141F0FE4141F470014FF00000FE
:100B700070BD41F0FE4141F4780170BD70B54FF099
:100B8000FF0C4CF4E06C1CEA11541DBF1CEA135519
:100B900094EA0C0F95EA0C0F00F0A7F8A4EB0504FB
:100BA00081EA030E52EA03354FEA013100F08880F2
:100BB0004FEA03334FF0805545EA131343EA1263BB
:100BC0004FEA022245EA111545EA10654FEA002670
:100BD0000EF000419D4208BF964244F1FD0404F529
:100BE000407402D25B084FEA3202B61A65EB030585
:100BF0005B084FEA32024FF480104FF4002CB6EB42
:100C0000020E75EB030E22BFB61A754640EA0C00C1
:100C10005B084FEA3202B6EB020E75EB030E22BF01
:100C2000B61A754640EA5C005B084FEA3202B6EB42
:100C3000020E75EB030E22BFB61A754640EA9C0001
:100C40005B084FEA3202B6EB020E75EB030E22BFD1
:100C5000B61A754640EADC0055EA060E18D04FEA8F
:100C6000051545EA16754FEA06164FEAC30343EA2F
:100C700052734FEAC2025FEA1C1CC0D111F4801FFC
:100C80000BD141EA00014FF000004FF0004CB6E7F5
:100C900011F4801F04BF01430020B4F1FD0C88BF94
:100CA000BCF5E06F3FF6AFAEB5EB030C04BFB6EB9F
:100CB000020C5FEA500C50F1000041EB045170BD92
:100CC0000EF0004E4EEA113114EB5C04C2BFD4EBBF
:100CD0000C0541EA045170BD41F480114FF0000E43
:100CE000013C90E645EA060E8DE60CEA135594EABF
:100CF0000C0F08BF95EA0C0F3FF43BAF94EA0C0FC2
:100D00000AD150EA01347FF434AF95EA0C0F7FF436
:100D100025AF104619462CE795EA0C0F06D152EA8A
:100D200003353FF4FDAE1046194622E750EA41066E
:100D300018BF52EA43067FF4C5AE50EA41047FF47F
:100D40000DAF52EA43057FF4EBAE12E74FF0FF3CE4
:100D500006E000BF4FF0010C02E000BF4FF0010CB5
:100D60004DF804CD4FEA410C7FEA6C5C4FEA430C2E
:100D700018BF7FEA6C5C1BD001B050EA410C0CBF7D
:100D800052EA430C91EA030F02BF90EA020F0020DF
:100D9000704710F1000F91EA030F58BF994208BF46
:100DA00090422CBFD8176FEAE37040F00100704703
:100DB0004FEA410C7FEA6C5C02D150EA013C07D15A
:100DC0004FEA430C7FEA6C5CD6D152EA033CD3D0A5
:100DD0005DF8040B704700BF8446104662468C469F
:100DE0001946634600E000BF01B5FFF7B7FF0028D2
:100DF00048BF10F1000F01BD4DF808EDFFF7F4FFFB
:100E00000CBF012000205DF808FB00BF4DF808ED85
:100E1000FFF7EAFF34BF012000205DF808FB00BFA8
:100E20004DF808EDFFF7E0FF94BF012000205DF8CA
:100E300008FB00BF4DF808EDFFF7CEFF94BF01207F
:100E400000205DF808FB00BF4DF808EDFFF7C4FF78
:100E500034BF012000205DF808FB00BF4FEA410CC1
:100E60007FEA6C5C02D150EA013C0AD14FEA430CA4
:100E70007FEA6C5C02D152EA033C02D14FF00000E1
:100E800070474FF0010070474A0011D212F500126E
:100E900011D20DD56FF47873B3EB62520ED44FEAD2
:100EA000C12343F0004343EA505323FA02F0704752
:100EB0004FF00000704750EA013002D14FF0FF3090
:100EC00070474FF0000070474FEA4102B2F1E04333
:100ED00024BFB3F5001CDCF1FE5C0DD901F0004C21
:100EE0004FEAC0024CEA5070B2F1004F40EB830071
:100EF00008BF20F00100704711F0804F21D113F19D
:100F00003872BCBF01F00040704741F480114FEAD5
:100F10005252C2F11802C2F1200C10FA0CF320FA5E
:100F200002F018BF40F001004FEAC1234FEAD3237B
:100F300003FA0CFC40EA0C0023FA02F34FEA4303E5
:100F4000CCE77FEA625307D150EA01331EBF4FF06E
:100F5000FE4040F44000704701F0004040F0FE4089
:100F600040F40000704700BF38B50022002304465B
:100F70000D46FFF74BFF28B920462946BDE838400B
:100F800000F00AB8204605F1004100F005F84042A3
:100F900061EB410138BD00BFD0B50C4B00220646C5
:100FA0000F46FFF7C1FCFFF76FFF0446FFF742FC57
:100FB000074B0022FFF7B8FC02460B463046394685
:100FC000FFF7FAFAFFF760FF2146D0BD0000F03DC1
:100FD0000000F041002310B50446C0E90033C0E929
:100FE0000433836081814366C2818361194608228C
:100FF0005C3000F0F4F80D4B63620D4BA3620D4BB7
:10100000E3620D4B23630D4B24629C4206D003F137
:101010006802944202D0D0339C4205D104F15800BA
:10102000BDE8104000F04EB910BD00BF59110008D6
:101030007B110008B3110008D71100080C02002032
:10104000024A0349034800F069B800BF00000020CD
:10105000C51500081000002041680C4B994210B5DE
:10106000044601D000F0AEFAA168094B994202D0C3
:10107000204600F0A7FAE168064B994204D02046CA
:10108000BDE8104000F09EBA10BD00BF0C02002069
:1010900074020020DC02002010B50B4B0B4C0C4AF4
:1010A0001A60204600220421FFF794FF04F1680033
:1010B00001220921FFF78EFF04F1D0000222BDE8D2
:1010C00010401221FFF786BF440300200C020020CD
:1010D00041100008014800F0F6B800BF4D030020A1
:1010E000014800F0F1B800BF4D03002010B50446E0
:1010F000FFF7F0FF236A1BB1BDE81040FFF7F0BF18
:10110000044B2362044B1B68002BF5D1FFF7C4FF8F
:10111000F2E700BF59100008440300202DE9F8430E
:101120000746884614460026D4E90195B9F101091D
:1011300005D52468002CF7D13046BDE8F883AB898B
:10114000012B07D9B5F90E30013303D029463846B3
:10115000C04706436835E9E710B50C46B1F90E10F3
:1011600000F068F80028ABBF636DA3891B1823F457
:101170008053ACBF6365A38110BD2DE9F0411F46CC
:101180008B89DB0505460C46164605D5B1F90E10D0
:101190000223002200F03CF8A389B4F90E1023F4D6
:1011A0008053A38132463B462846BDE8F04100F01B
:1011B00053B810B50C46B1F90E1000F029F8431CD5
:1011C000A38915BF606523F4805343F48053A38142
:1011D00018BFA38110BDB1F90E1000F009B8024488
:1011E0000346934200D1704703F8011BF9E7000062
:1011F00038B5064D0023044608462B6002F0F6FD84
:10120000431C02D12B6803B1236038BD4803002082
:1012100038B5074D04460846114600222A601A4692
:1012200002F00BFE431C02D12B6803B1236038BDD2
:101230004803002038B5074D0446084611460022F1
:101240002A601A4602F099FD431C02D12B6803B1B3
:10125000236038BD4803002038B5074D04460846D2
:10126000114600222A601A4602F0A4FD431C02D156
:101270002B6803B1236038BD4803002070B50D4DC5
:101280000D4C641BA4100026A64209D10B4D0C4C3A
:1012900006F0FAFD641BA4100026A64205D170BD1D
:1012A00055F8043B98470136EEE755F8043B98475C
:1012B0000136F2E70084000800840008008400087A
:1012C00004840008704770477047000038B5054631
:1012D000002941D051F8043C0C1F002BB8BFE41882
:1012E00000F0E0F81D4A136833B9636014602846C3
:1012F000BDE8384000F0DCB8A34208D920682118C6
:101300008B4201BF19685B6809182160EDE71A4636
:101310005B680BB1A342FAD911685018A0420BD1F7
:1013200020680144501883421160E0D118685B685E
:10133000536008441060DAE702D90C232B60D6E72B
:10134000206821188B4204BF19685B68636004BF82
:10135000091821605460CAE738BD00BF540300205B
:1013600070B50F4E0C463168054611B900F052F9C0
:1013700030602146284600F04DF9431C03D14FF060
:10138000FF34204670BDC41C24F00304A042F8D0F2
:10139000211A284600F03EF90130F2D1EFE700BFF4
:1013A000500300202DE9F843CD1C25F00305083536
:1013B0000C2D38BF0C25002D064601DBA94204D9AF
:1013C0000C2333600020BDE8F883DFF8D48000F000
:1013D00069F8D8F800301C4644BB29463046FFF770
:1013E000BFFF431C044658D1D8F800402746002FC1
:1013F00043D1002C4BD023683946304604EB030917
:1014000000F008F9814542D121686D1A294630461D
:10141000FFF7A6FF01303AD023682B442360D8F8A9
:1014200000305A6862BBC8F800700FE02268521B97
:1014300020D40B2A17D96119A342256018BF59601F
:10144000636808BFC8F8001062514B60304600F076
:101450002FF804F10B00231D20F00700C21A1CBF57
:101460001B1AA350AFE76268A3420CBFC8F8002064
:101470005A60EBE723466468AEE73C467F68B6E710
:101480001A465B68A342FBD100235360DEE70C23BE
:101490003360304600F00CF894E70560D6E700BFF3
:1014A000540300200148FFF70EBF00BF4C0300208B
:1014B0000148FFF709BF00BF4C030020B1F90C2021
:1014C0002DE9F041160705460C4654D44B68002B15
:1014D00002DC0B6C002B48DDE66A002E45D00023B1
:1014E00012F480522F68216A2B6030D0626DA3897C
:1014F000590705D56368D21A636B0BB1236CD21AF6
:101500000023E66A216A2846B047431CA38906D116
:1015100029681D292BD82A4ACA40D60727D5002278
:101520006260D9042269226004D5421C01D12B6873
:1015300003B96065616B2F60B9B104F1440399424E
:1015400002D02846FFF7C2FE002363630DE00123AB
:101550002846B0470246501CC9D12B68002BC6D084
:101560001D2B01D0162B1ED12F60002022E043F04E
:1015700040031BB21BE00F69002FF6D093070E68E3
:1015800008BF4B690F6018BF0023A6EB07088B60EC
:10159000B8F1000FE9DD216AA66A43463A462846BB
:1015A000B047002808DCB4F90C3043F04003A381B5
:1015B0004FF0FF30BDE8F0810744A8EB0008E7E7F3
:1015C0000100402038B50B6905460C4613B90025CB
:1015D000284638BD18B1036A0BB9FFF787FDB4F987
:1015E0000C30002BF3D0626ED00704D4990502D4DE
:1015F000A06DFFF768FE28462146FFF75FFF636E88
:10160000DA070546E4D4A3899B05E1D4A06DFFF772
:101610005BFEDDE738B5064D0023044608462B6027
:1016200002F052FB431C02D12B6803B1236038BD8A
:101630004803002080B400AF064BD3F88830054A39
:1016400043F47003C2F8883000BFBD465DF8047BE8
:10165000704700BF00ED00E080B582B000AF786059
:101660007B68002B01D1012342E07B6893F8413075
:10167000DBB2002B06D17B68002283F8402078681B
:1016800002F082FA7B68242283F841207B681B6881
:10169000DA687B681B6822F40052DA60786800F030
:1016A000B5FB7B681B681A697B681B6822F4904253
:1016B0001A617B681B685A697B681B6822F02A02E2
:1016C0005A617B681B68DA687B681B6842F40052C9
:1016D000DA607B6800225A647B68202283F841200C
:1016E0007B68202283F842207B6800225A63002313
:1016F00018460837BD4680BD80B582B000AF78601F
:101700007B68002B01D1012324E07B68242283F82D
:1017100041207B681B68DA687B681B6822F40052F2
:10172000DA60786802F0ACFA7B6800225A647B6861
:10173000002283F841207B68002283F842207B68E6
:1017400000221A637B6800225A637B68002283F8B8
:101750004020002318460837BD4680BD80B58AB0BA
:1017600002AFF860B9603B601346FB8000237B61E9
:10177000FB6893F84130DBB2202B75D1BB68002B9E
:1017800002D0FB88002B01D101236EE0FB68002210
:101790005A64FB68212283F8412002F045F8786101
:1017A000FB68FA889A84FB68FA88DA84FB689B688D
:1017B000B3F5805F08D1FB681B69002B04D10023BF
:1017C000FB61BB68BB6103E0BB68FB610023BB61DD
:1017D0002EE03B6800937B6900228021F86800F0CE
:1017E00095F90346002B05D0FB68202283F84120A1
:1017F00003233AE0FB69002B0BD1BB691B881A4617
:10180000FB681B68C2F308025A60BB690233BB6104
:1018100007E0FB691A78FB681B685A60FB690133B3
:10182000FB61FB68DB8C9BB2013B9AB2FB68DA84FC
:10183000FB68DB8C9BB2002BCBD13B6800937B69B0
:1018400000224021F86800F061F90346002B05D022
:10185000FB68202283F84120032306E0FB68202256
:1018600083F84120002300E0022318462037BD46BC
:1018700080BD80B584B000AFF860B9601346FB80CE
:10188000FB6893F84230DBB2202B12D1BB68002BEF
:1018900002D0FB88002B01D101230BE0FB68002262
:1018A0001A63FB881A46B968F86800F089F903469C
:1018B00000E0022318461037BD4680BD80B483B0D7
:1018C00000AF786000BF0C37BD465DF8047B704701
:1018D00080B483B000AF786000BF0C37BD465DF8C0
:1018E000047B704780B483B000AF786000BF0C37D2
:1018F000BD465DF8047B704780B483B000AF78606C
:101900000B467B8000BF0C37BD465DF8047B7047FB
:1019100080B59CB000AF78607B689B6BFB667B6892
:101920001B681B6803F48073002B72D1FB6E0022CE
:10193000DA85FB6E1B680C33FB64FB6C53E8003FDD
:10194000BB64BB6C23F48073BB66FB6E1B680C33FB
:10195000BA6EBA657B65796DBA6D41E800233B6567
:101960003B6D002BE5D1FB6E1B681433BB63BB6B77
:1019700053E8003F7B637B6B23F001037B66FB6EC8
:101980001B6814337A6E7A643B64396C7A6C41E874
:101990000023FB63FB6B002BE5D1FB6E1B6814334C
:1019A0007B627B6A53E8003F3B623B6A23F0400363
:1019B0003B66FB6E1B6814333A6E3A63FB62F96A4E
:1019C0003A6B41E80023BB62BB6A002BE5D1FB6E9A
:1019D000202283F84220FB6E1B6B012B19D1FB6E7A
:1019E0001B680C333B613B6953E8003FFB60FB68BD
:1019F00023F01003FB65FB6E1B680C33FA6DFA6174
:101A0000BB61B969FA6941E800237B617B69002BFE
:101A1000E5D1FB6E00225A63FB6E1B6B012B06D1D6
:101A2000FB6E9B8D1946F86EFFF766FF02E0F86EBD
:101A3000FFF744FF00BF7037BD4680BD80B584B05E
:101A400000AF78607B689B6BFB60FB6801225A6388
:101A5000FB681B6B012B08D1FB689B8D5B089BB25D
:101A60001946F868FFF748FF02E0F868FFF730FF13
:101A700000BF1037BD4680BD80B584B000AF786030
:101A80000023FB607B689B6BBB60BB681B685B696A
:101A900003F08003802B0CBF01230023DBB2FB602B
:101AA000BB6893F84130DBB2212B08D1FB68002BD7
:101AB00005D0BB680022DA84B86800F01BF9BB6867
:101AC0001B685B6903F04003402B0CBF012300231C
:101AD000DBB2FB60BB6893F84230DBB2222B08D14B
:101AE000FB68002B05D0BB680022DA85B86800F0DF
:101AF00029F9BB685B6C43F01002BB685A64B86894
:101B0000FFF7F0FE00BF1037BD4680BD80B586B040
:101B100000AFF860B9603B601346FB713BE03B6A85
:101B2000B3F1FF3F37D001F07FFE02463B68D31A86
:101B30003A6A9A4202D33B6A002B01D103233AE06E
:101B4000FB681B68DB6803F00403002B23D0BB6831
:101B5000802B20D0BB68402B1DD0FB681B681B6806
:101B600003F00803082B16D100237B61FB681B6878
:101B70001B687B61FB681B685B687B617B69F8683D
:101B800000F0E0F8FB6808225A64FB68002283F842
:101B9000402001230FE0FB681B681A68BB681340F4
:101BA000BA689A420CBF01230023DBB21A46FB79C4
:101BB0009A42B4D0002318461837BD4680BD0000B5
:101BC00080B598B000AFF860B9601346FB80BA6882
:101BD000FB689A62FB68FA889A85FB6800225A645F
:101BE000FB68222283F84220FB68DB6B3E4ADA6303
:101BF000FB68DB6B3D4A1A64FB68DB6B3C4ADA64CA
:101C0000FB68DB6B00221A6507F10803FB65FB68C4
:101C1000D86BFB681B6804331946FB6D1A68FB8898
:101C200001F07EFB00233B61FB681B681B683B6186
:101C3000FB681B685B683B613B69FB681B69002BA9
:101C400019D0FB681B680C333B643B6C53E8003FC6
:101C5000FB63FB6B43F48073BB65FB681B680C3351
:101C6000BA6DFA64BB64B96CFA6C41E800237B641A
:101C70007B6C002BE5D1FB681B681433FB62FB6AAD
:101C800053E8003FBB62BB6A43F001037B65FB681E
:101C90001B6814337A6DBA637B63796BBA6B41E866
:101CA00000233B633B6B002BE5D1FB681B681433BF
:101CB000BB61BB6953E8003F7B617B6943F0400334
:101CC0003B65FB681B6814333A6D7A623B62396A84
:101CD0007A6A41E80023FB61FB69002BE5D1002310
:101CE00018466037BD4680BD111900083D1A00082E
:101CF000791A000880B489B000AF78607B681B68EF
:101D00000C33FB60FB6853E8003FBB60BB6823F00B
:101D1000C003FB617B681B680C33FA69BA617B61A5
:101D20007969BA6941E800233B613B69002BE5D141
:101D30007B68202283F8412000BF2437BD465DF830
:101D4000047B704780B495B000AF78607B681B68F7
:101D50000C337B637B6B53E8003F3B633B6B23F4AB
:101D60009073FB647B681B680C33FA6C3A64FB630A
:101D7000F96B3A6C41E80023BB63BB6B002BE5D1E8
:101D80007B681B6814333B623B6A53E8003FFB618E
:101D9000FB6923F00103BB647B681B681433BA6CD6
:101DA000FA62BB62B96AFA6A41E800237B627B6A25
:101DB000002BE5D17B681B6B012B19D17B681B685D
:101DC0000C33FB60FB6853E8003FBB60BB6823F04B
:101DD00010037B647B681B680C337A6CBA617B618F
:101DE0007969BA6941E800233B613B69002BE5D181
:101DF0007B68202283F842207B6800221A6300BFA0
:101E00005437BD465DF8047B704700002DE9B04FA4
:101E1000C0B000AFC7F8F400D7F8F4301B681B69F6
:101E200023F44050D7F8F430D968D7F8F4301A6862
:101E300040EA01031361D7F8F4309A68D7F8F43018
:101E40001B691A43D7F8F4305B691A43D7F8F430AA
:101E5000DB691343C7F8F830D7F8F4301B68DB6848
:101E600023F4164121F00C01D7F8F4301A68D7F8A2
:101E7000F8300B43D360D7F8F4301B685B6923F468
:101E80004070D7F8F4309969D7F8F4301A6840EA0E
:101E900001035361D7F8F4301A688F4B9A4205D08A
:101EA000D7F8F4301A688D4B9A4204D100F066FEE0
:101EB000C7F8FC0003E000F04DFEC7F8FC00D7F8BF
:101EC000F430DB69B3F5004F40F00C81D7F8FC30FB
:101ED0000022C7F8E830C7F8EC20D7E93A45224697
:101EE0002B469118B9655B41FB65D7E9162321465E
:101EF00012EB0108294643EB01094FF000024FF0B5
:101F000000034FEAC90343EA58734FEAC8029046F8
:101F10009946234618EB0303C7F8E0302B4649EBFC
:101F20000303C7F8E430D7F8F4305B680022C7F841
:101F3000D830C7F8DC20D7E936120B46DB183B65F2
:101F4000134642EB03037B65D7E91423D7E9380135
:101F5000FEF73EF902460B46614BA3FB02235B09E9
:101F60001C01D7F8FC300022C7F8D030C7F8D420C5
:101F7000D7E9348942464B469118B9645B41FB640A
:101F8000D7E91223414612EB010A494643EB010B04
:101F90004FF000024FF000034FEACB0343EA5A73BD
:101FA0004FEACA0292469B4643461AEB0303C7F820
:101FB000C8304B464BEB0303C7F8CC30D7F8F430AE
:101FC0005B680022C7F8C030C7F8C420D7E93012D8
:101FD0000B46DB183B64134642EB03037B64D7E9F3
:101FE0001023D7E93201FEF7F3F802460B461146FB
:101FF0003B4BA3FB01235B09642202FB03F3CB1AD7
:10200000DB0003F13202364BA3FB02235B095B00CA
:1020100003F4F8731C44D7F8FC300022C7F8B8303A
:10202000C7F8BC20D7E92E8942464B469118B963C0
:102030005B41FB63D7E90E2341465118396349469A
:102040004B417B634FF000024FF00003D7E90CAB2C
:102050005946CB00514643EA51735146CA001046D7
:102060001946034642469B18C7F8B0304B460A460D
:1020700042EB0303C7F8B430D7F8F4305B680022B2
:10208000C7F8A830C7F8AC20D7E92A120B46DB18EE
:10209000BB62134642EB0303FB62D7E90A23D7E98D
:1020A0002C01FEF795F802460B460D4BA3FB0213DD
:1020B0005B09642101FB03F3D31ADB003233084AC6
:1020C000A2FB03235B0903F00702D7F8F4301B6877
:1020D00022449A6006E100BF001001400014014054
:1020E0001F85EB51D7F8FC300022C7F8A030C7F8A5
:1020F000A420D7E9288942464B46911839625B41B2
:102100007B62D7E9082341465418494643EB010551
:102110004FF000024FF00003EB0043EA5473E2007B
:1021200014461D464346E318C7F898304B4645EB26
:102130000303C7F89C30D7F8F4305B680022C7F877
:102140009030C7F894204FF000024FF00003D7E919
:10215000244529468B00214643EA917321468A0093
:10216000D7E92601FEF734F802460B46604BA3FB85
:1021700002235B091C01D7F8FC300022C7F8883025
:10218000C7F88C20D7E9228942464B469118B9619D
:102190005B41FB61D7E90623414651183961494645
:1021A0004B417B614FF000024FF00003D7E904ABD5
:1021B0005946CB00514643EA51735146CA00104676
:1021C0001946034642469B18C7F880304B460A46DC
:1021D00042EB0303C7F88430D7F8F4305B68002281
:1021E000BB67FA674FF000024FF00003D7E91E8982
:1021F00049468B00414643EA917341468A00D7E93C
:102200002001FDF7E5FF02460B461146384BA3FBC4
:1022100001235B09642202FB03F3CB1A1B01323357
:10222000334AA2FB03235B0903F0F0031C44D7F8F5
:10223000FC3000223B677A67D7E91C8942464B464F
:102240009118B9605B41FB60D7E902234146511800
:10225000396049464B417B604FF000024FF000036C
:10226000D7E900AB5946CB00514643EA517351467A
:10227000CA0010461946034642469B18BB664B46A9
:102280000A4642EB0303FB66D7F8F4305B68002292
:102290003B667A664FF000024FF00003D7E91889D9
:1022A00049468B00414643EA917341468A00D7E98B
:1022B0001A01FDF78DFF02460B460D4BA3FB0213DF
:1022C0005B09642101FB03F3D31A1B013233084A73
:1022D000A2FB03235B0903F00F02D7F8F4301B685D
:1022E00022449A6000BF07F58077BD46BDE8B08FF5
:1022F0001F85EB5180B586B000AF78607B68002BFE
:1023000001D1012367E27B681B6803F00103002B06
:1023100075D0884B9B6803F00C03042B0CD0854BC5
:102320009B6803F00C03082B12D1824B5B6803F40B
:102330008003B3F5800F0BD17E4B1B6803F4003391
:10234000002B5BD07B685B68002B57D1012342E2F6
:102350007B685B68B3F5803F06D1764B1B68754A96
:1023600043F4803313601DE07B685B68B3F5A02FF6
:102370000CD1704B1B686F4A43F4802313606D4B84
:102380001B686C4A43F4803313600BE0694B1B6895
:10239000684A23F480331360664B1B68654A23F454
:1023A000802313607B685B68002B13D001F03CFA3C
:1023B000386108E001F038FA02463B69D31A642B11
:1023C00001D9032307E25B4B1B6803F40033002BA6
:1023D000F0D014E001F028FA386108E001F024FAA6
:1023E00002463B69D31A642B01D90323F3E1514B15
:1023F0001B6803F40033002BF0D100E000BF7B68C2
:102400001B6803F00203002B63D04A4B9B6803F068
:102410000C03002B0BD0474B9B6803F00C03082BDD
:102420001CD1444B5B6803F48003002B16D1414B55
:102430001B6803F00203002B05D07B68DB68012BCF
:1024400001D00123C7E13B4B1B6823F0F8027B68F6
:102450001B69DB00374913430B603AE07B68DB689C
:10246000002B20D0344B01221A6001F0DDF93861D5
:1024700008E001F0D9F902463B69D31A022B01D9D1
:102480000323A8E12B4B1B6803F00203002BF0D0C1
:10249000284B1B6823F0F8027B681B69DB00254989
:1024A00013430B6015E0244B00221A6001F0BCF9C5
:1024B000386108E001F0B8F902463B69D31A022BF3
:1024C00001D9032387E11B4B1B6803F00203002B98
:1024D000F0D17B681B6803F00803002B36D07B68C3
:1024E0005B69002B16D0154B01221A6001F09CF994
:1024F000386108E001F098F902463B69D31A022BD3
:1025000001D9032367E10B4B5B6F03F00203002B40
:10251000F0D01BE0094B00221A6001F085F9386108
:102520000EE001F081F902463B69D31A022B07D96C
:10253000032350E10038024000004742800E47422A
:10254000884B5B6F03F00203002BEAD17B681B68AA
:1025500003F00403002B00F097800023FB75814BF0
:102560001B6C03F08053002B0FD10023BB607D4B0D
:102570001B6C7C4A43F0805313647A4B1B6C03F052
:102580008053BB60BB680123FB75774B1B6803F46A
:102590008073002B18D1744B1B68734A43F480730B
:1025A000136001F041F9386108E001F03DF902469D
:1025B0003B69D31A022B01D903230CE16A4B1B6838
:1025C00003F48073002BF0D07B689B68012B06D14D
:1025D000644B1B6F634A43F0010313671CE07B6885
:1025E0009B68052B0CD15F4B1B6F5E4A43F00403C5
:1025F00013675C4B1B6F5B4A43F0010313670BE0EF
:10260000584B1B6F574A23F001031367554B1B6F41
:10261000544A23F0040313677B689B68002B15D092
:1026200001F002F938610AE001F0FEF802463B6968
:10263000D31A41F28832934201D90323CBE0494BAC
:102640001B6F03F00203002BEED014E001F0ECF856
:1026500038610AE001F0E8F802463B69D31A41F21A
:102660008832934201D90323B5E03E4B1B6F03F040
:102670000203002BEED1FB7D012B05D1394B1B6CE6
:10268000384A23F0805313647B689B69002B00F069
:10269000A180344B9B6803F00C03082B5CD07B6853
:1026A0009B69022B41D1314B00221A6001F0BCF82A
:1026B000386108E001F0B8F802463B69D31A022BF2
:1026C00001D9032387E0274B1B6803F00073002B1D
:1026D000F0D17B68DA697B681B6A1A437B685B6AA6
:1026E0009B011A437B689B6A5B08013B1B041A43EE
:1026F0007B68DB6A1B061B4913434B601B4B0122A3
:102700001A6001F091F8386108E001F08DF8024696
:102710003B69D31A022B01D903235CE0114B1B68E0
:1027200003F00073002BF0D054E0104B00221A602D
:1027300001F07AF8386108E001F076F802463B696A
:10274000D31A022B01D9032345E0064B1B6803F083
:102750000073002BF0D13DE07B689B69012B07D112
:10276000012338E00038024000700040600047421A
:102770001B4B5B68FB607B689B69012B28D0FB6867
:1027800003F480027B68DB699A4221D1FB6803F085
:102790003F027B681B6A9A421AD1FA6847F6C073F7
:1027A00013407A68526A9201934211D1FB6803F494
:1027B00040327B689B6A5B08013B1B049A4207D14D
:1027C000FB6803F070627B68DB6A1B069A4201D0EB
:1027D000012300E0002318461837BD4680BD00BF26
:1027E0000038024080B584B000AF786039607B6803
:1027F000002B01D10123CCE0684B1B6803F00703D9
:102800003A689A420CD9654B3A68D2B21A70634B57
:102810001B6803F007033A689A4201D00123B8E02D
:102820007B681B6803F00203002B20D07B681B68C9
:1028300003F00403002B05D0594B9B68584A43F41E
:10284000E05393607B681B6803F00803002B05D0FE
:10285000534B9B68524A43F460439360504B9B68D0
:1028600023F0F0027B689B684D4913438B607B68C3
:102870001B6803F00103002B44D07B685B68012BCD
:1028800007D1474B1B6803F40033002B19D10123F8
:102890007FE07B685B68022B03D07B685B68032B5F
:1028A00007D13F4B1B6803F00073002B09D10123B4
:1028B0006FE03B4B1B6803F00203002B01D10123A7
:1028C00067E0374B9B6823F003027B685B68344901
:1028D00013438B6000F0A8FFF8600AE000F0A4FF4B
:1028E0000246FB68D31A41F28832934201D903238E
:1028F0004FE02B4B9B6803F00C027B685B689B00EE
:102900009A42EBD1254B1B6803F007033A689A42C1
:102910000CD2224B3A68D2B21A70204B1B6803F0DB
:1029200007033A689A4201D0012332E07B681B68B2
:1029300003F00403002B08D0194B9B6823F4E052EA
:102940007B68DB68164913438B607B681B6803F068
:102950000803002B09D0124B9B6823F460427B686C
:102960001B69DB000E4913438B6000F021F802461F
:102970000B4B9B681B0903F00F030A49CB5C22FA3F
:1029800003F3094A1360094B1B68184600F008FF5F
:10299000002318461037BD4680BD00BF003C0240F2
:1029A00000380240208000085C0000206000002009
:1029B0002DE9B04F90B000AF00237B630023FB6391
:1029C00000233B630023BB63594B9B6803F00C035C
:1029D000082B0DD0082B00F2A180002B02D0042B75
:1029E00003D09BE0534BBB639BE0534BBB6398E02E
:1029F0004F4B5B6803F03F037B634D4B5B6803F415
:102A00008003002B28D04A4B5B689B0900223B6265
:102A10007A623B6AC3F308000021474B03FB01F2D3
:102A2000002300FB03F31344434AA0FB0212FA62A3
:102A30000A46BA62FA6A1344FB627B6B0022BB61EE
:102A4000FA61D7E90623D7E90A01FDF7C1FB02467F
:102A50000B461346FB6353E0354B5B689B09002232
:102A60003B617A613B69C3F3080A4FF0000B5246A1
:102A70005B464FF000004FF00001590141EAD2617E
:102A8000500102460B46B2EB0A0863EB0B094FF00C
:102A900000024FF000034FEA891343EA98634FEABC
:102AA0008812B2EB080463EB09054FF000024FF007
:102AB0000003EB0043EA5473E20014461D4614EB96
:102AC0000A033B6045EB0B037B604FF000024FF0C5
:102AD0000003D7E9004529468B02214643EA91537A
:102AE00021468A02104619467B6B0022BB60FA60C1
:102AF000D7E90223FDF76CFB02460B461346FB6346
:102B00000B4B5B681B0C03F0030301335B003B635F
:102B1000FA6B3B6BB2FBF3F3BB6302E0054BBB63A9
:102B200000BFBB6B18464037BD46BDE8B08F00BF45
:102B3000003802400024F40040787D0180B400AFEA
:102B4000034B1B681846BD465DF8047B704700BF09
:102B50005C00002080B500AFFFF7F0FF0246054B98
:102B60009B689B0A03F007030349CB5C22FA03F33B
:102B7000184680BD003802403080000880B500AFA4
:102B8000FFF7DCFF0246054B9B685B0B03F0070376
:102B90000349CB5C22FA03F3184680BD003802409B
:102BA0003080000880B489B000AF786039600023BD
:102BB0007B6100233B610023BB610023FB616BE170
:102BC0000122FB6902FA03F37B613B681B687A69A7
:102BD00013403B613A697B699A4240F05A813B68F5
:102BE0005B6803F00303012B05D03B685B6803F0CF
:102BF0000303022B30D17B689B68BB61FB695B00E0
:102C0000032202FA03F3DB43BA691340BB613B685A
:102C1000DA68FB695B0002FA03F3BA691343BB612C
:102C20007B68BA699A607B685B68BB610122FB695B
:102C300002FA03F3DB43BA691340BB613B685B688C
:102C40001B0903F00102FB6902FA03F3BA6913439B
:102C5000BB617B68BA695A603B685B6803F0030339
:102C6000032B17D07B68DB68BB61FB695B00032229
:102C700002FA03F3DB43BA691340BB613B689A680D
:102C8000FB695B0002FA03F3BA691343BB617B681B
:102C9000BA69DA603B685B6803F00303022B23D157
:102CA000FB69DA087B68083253F82230BB61FB69A4
:102CB00003F007039B000F2202FA03F3DB43BA6918
:102CC0001340BB613B681A69FB6903F007039B0073
:102CD00002FA03F3BA691343BB61FB69DA087B6844
:102CE0000832B96943F822107B681B68BB61FB6935
:102CF0005B00032202FA03F3DB43BA691340BB61B2
:102D00003B685B6803F00302FB695B0002FA03F3B4
:102D1000BA691343BB617B68BA691A603B685B6838
:102D200003F44033002B00F0B4800023FB60604BC1
:102D30005B6C5F4A43F4804353645D4B5B6C03F40C
:102D40008043FB60FB685B4AFB699B08023352F8D7
:102D50002330BB61FB6903F003039B000F2202FADF
:102D600003F3DB43BA691340BB617B68524A934269
:102D70002BD07B68514A934225D07B68504A9342BE
:102D80001FD07B684F4A934219D07B684E4A9342CA
:102D900013D07B684D4A93420DD07B684C4A9342D6
:102DA00007D07B684B4A934201D107230EE00823EA
:102DB0000CE006230AE0052308E0042306E00323D1
:102DC00004E0022302E0012300E00023FA6902F09C
:102DD000030292009340BA691343BB613549FB6912
:102DE0009B080233BA6941F823203B4B9B68BB61C7
:102DF0003B69DB43BA691340BB613B685B6803F422
:102E00008013002B03D0BA693B691343BB61324A7C
:102E1000BB699360304BDB68BB613B69DB43BA69DC
:102E20001340BB613B685B6803F40013002B03D0C5
:102E3000BA693B691343BB61274ABB69D360264B20
:102E40005B68BB613B69DB43BA691340BB613B68AC
:102E50005B6803F40033002B03D0BA693B6913436A
:102E6000BB611D4ABB6953601B4B1B68BB613B695F
:102E7000DB43BA691340BB613B685B6803F4803392
:102E8000002B03D0BA693B691343BB61124ABB698B
:102E90001360FB690133FB61FB690F2B7FF690AE7A
:102EA00000BF00BF2437BD465DF8047B704700BFFC
:102EB0000038024000380140000002400004024097
:102EC00000080240000C02400010024000140240C2
:102ED00000180240001C0240003C014080B487B052
:102EE00000AF7860396000233B610023FB60002362
:102EF000BB6000237B61CDE001227B6902FA03F312
:102F00003B613A683B691340FB60FA683B699A424F
:102F100040F0BD80654A7B699B08023352F823303C
:102F2000BB607B6903F003039B000F2202FA03F3EB
:102F3000BA681340BB607B685D4A93422BD07B68C4
:102F40005C4A934225D07B685B4A93421FD07B68E2
:102F50005A4A934219D07B68594A934213D07B68EE
:102F6000584A93420DD07B68574A934207D07B68FA
:102F7000564A934201D107230EE008230CE00623B2
:102F80000AE0052308E0042306E0032304E002230B
:102F900002E0012300E000237A6902F003029200BC
:102FA0009340BA689A4232D1494B1A68FB68DB43B6
:102FB000474913400B60464B5A68FB68DB43444962
:102FC00013404B60424BDA68FB68DB4340491340D7
:102FD000CB603F4B9A68FB68DB433D4913408B60F5
:102FE0007B6903F003039B000F2202FA03F3BB602B
:102FF0002E4A7B699B08023352F82310BB68DA43E0
:103000002A487B699B080A40023340F823207B68EA
:103010001A687B695B00032101FA03F3DB431A4062
:103020007B681A607B69DA087B68083253F82210E3
:103030007B6903F007039B000F2202FA03F3DB43D3
:103040007A69D20819407B68083243F822107B68FD
:10305000DA687B695B00032101FA03F3DB431A4062
:103060007B68DA607B685A6801217B6901FA03F3A7
:10307000DB431A407B685A607B689A687B695B0017
:10308000032101FA03F3DB431A407B689A607B69F2
:1030900001337B617B690F2B7FF62EAF00BF00BF32
:1030A0001C37BD465DF8047B704700BF0038014007
:1030B000000002400004024000080240000C0240F0
:1030C000001002400014024000180240001C0240A0
:1030D000003C014080B483B000AF78600B467B8039
:1030E00013467B707B78002B03D07A887B689A61CB
:1030F00003E07B881A047B689A6100BF0C37BD46E9
:103100005DF8047B7047000080B586B000AF786042
:1031100000237B6100F088FB38617B68002B01D1C4
:10312000012399E07B68022283F835207B68002226
:1031300083F834207B681B681A687B681B6822F060
:1031400001021A600FE000F06FFB02463B69D31AE0
:10315000052B08D97B6820225A657B68032283F8F7
:103160003520032378E07B681B681B6803F00103AC
:10317000002BE8D17B681B681B687B617A69384B40
:1031800013407B617B685A687B689B681A437B6845
:10319000DB681A437B681B691A437B685B691A43C7
:1031A0007B689B691A437B68DB691A437B681B6AEF
:1031B00013437A6913437B617B685B6A042B07D1F5
:1031C0007B68DA6A7B681B6B13437A6913437B6104
:1031D0007B681B687A691A607B681B685B697B6126
:1031E0007B6923F007037B617B685B6A7A69134321
:1031F0007B617B685B6A042B17D17B689B6A7A6969
:1032000013437B617B68DB6A002B0ED0786800F08B
:1032100043F90346002B08D07B6840225A657B683F
:10322000012283F83520012316E07B681B687A6948
:103230005A61786800F0FAF80346FB607B68DB6D42
:103240003F229A40FB689A607B6800225A657B683F
:10325000012283F83520002318461837BD4680BD6B
:103260003F8010F080B584B000AF78607B68002BA1
:1032700001D1012350E07B6893F83530DBB2022B9B
:1032800001D1022348E07B681B681A687B681B68D1
:1032900022F001021A607B681B6800221A607B68BA
:1032A0001B6800225A607B681B6800229A607B685A
:1032B0001B680022DA607B681B6800221A617B6849
:1032C0001B6821225A61786800F0B0F80346FB6061
:1032D0007B680022DA637B6800221A647B68002224
:1032E0005A647B6800229A647B680022DA647B68F7
:1032F00000221A657B68DB6D3F229A40FB689A606A
:103300007B6800225A657B68002283F835207B6841
:10331000002283F83420002318461037BD4680BDB4
:1033200080B586B000AFF860B9607A603B6000237A
:10333000FB75FB689B6D3B61FB6893F83430012B98
:1033400001D1022340E0FB68012283F83420FB68AE
:1033500093F83530DBB2012B2FD1FB68022283F8C2
:103360003520FB6800225A653B687A68B968F868BE
:1033700000F02EF8FB68DB6D3F229A403B699A60B3
:10338000FB681B681A68FB681B6842F016021A602B
:10339000FB681B6C002B07D0FB681B681A68FB6876
:1033A0001B6842F008021A60FB681B681A68FB6819
:1033B0001B6842F001021A6005E0FB68002283F8F6
:1033C00034200223FB75FB7D18461837BD4680BDAF
:1033D00080B485B000AFF860B9607A603B60FB688C
:1033E0001B681A68FB681B6822F480221A60FB685D
:1033F0001B683A685A60FB689B68402B08D1FB68E1
:103400001B687A689A60FB681B68BA68DA6007E034
:10341000FB681B68BA689A60FB681B687A68DA60A8
:1034200000BF1437BD465DF8047B704780B485B09B
:1034300000AF78607B681B68DBB2103B144AA2FBCC
:1034400003231B09FB60134AFB6813441B781A46CD
:103450007B68DA65FB68032B09D97B681B6823F45A
:103460007F7323F003031A1D7B689A6507E07B686E
:103470001B6823F47F7323F003037A6893657B68EA
:103480009B6D18461437BD465DF8047B704700BF3E
:10349000ABAAAAAA3880000880B485B000AF7860D3
:1034A0000023FB737B689B6ABB607B689B69002B76
:1034B0001FD1BB68032B56D801A252F823F000BFDE
:1034C000D1340008E3340008D1340008673500081F
:1034D0007B68DB6A03F08073002B46D00123FB730B
:1034E00043E07B68DB6AB3F1C07F40D10123FB730B
:1034F0003DE07B689B69B3F5005F21D1BB68032B7E
:1035000037D801A252F823F0193500081F350008FA
:1035100019350008313500080123FB7330E07B6862
:10352000DB6A03F08073002B25D00123FB7322E0BC
:103530007B68DB6AB3F1C07F1FD10123FB731CE002
:10354000BB68022B03D9BB68032B03D018E001230F
:10355000FB7315E07B68DB6A03F08073002B0ED0F1
:103560000123FB730BE000BF0AE000BF08E000BFCF
:1035700006E000BF04E000BF02E000BF00E000BFC3
:10358000FB7B18461437BD465DF8047B704700BFCF
:1035900080B485B000AF78607B6803F00703FB6000
:1035A0000C4BDB68BB60BA684FF6FF031340BB608F
:1035B000FB681A02BB68134343F0BF6343F4003354
:1035C000BB60044ABB68D36000BF1437BD465DF8DA
:1035D000047B704700ED00E080B400AF044BDB6873
:1035E0001B0A03F007031846BD465DF8047B7047CD
:1035F00000ED00E080B483B000AF03463960FB719A
:1036000097F90730002B0ADB3B68DAB20C4997F9CF
:1036100007301201D2B20B4483F800230AE03B6862
:10362000DAB20849FB7903F00F03043B1201D2B26E
:103630000B441A7600BF0C37BD465DF8047B70471B
:1036400000E100E000ED00E080B489B000AFF86078
:10365000B9607A60FB6803F00703FB61FB69C3F1A3
:103660000703042B28BF0423BB61FB690433062B2B
:1036700002D9FB69033B00E000237B614FF0FF327E
:10368000BB6902FA03F3DA43BB681A407B699A40CC
:103690004FF0FF317B6901FA03F3D9437B680B409C
:1036A000134318462437BD465DF8047B704700007D
:1036B00080B582B000AF78607B68013BB3F1807F5A
:1036C00001D301230FE00A4A7B68013B53600F21BD
:1036D0004FF0FF30FFF78EFF054B00229A60044B3E
:1036E00007221A60002318460837BD4680BD00BF78
:1036F00010E000E080B582B000AF78607868FFF736
:1037000047FF00BF0837BD4680BD80B586B000AF1B
:103710000346B9607A60FB7300237B61FFF75CFFAF
:1037200078617A68B9687869FFF78EFF024697F981
:103730000F3011461846FFF75DFF00BF1837BD4632
:1037400080BD80B582B000AF78607868FFF7B0FFC9
:10375000034618460837BD4680BD000080B500AF5F
:103760000E4B1B680D4A43F4007313600B4B1B6830
:103770000A4A43F480631360084B1B68074A43F40A
:10378000807313600320FFF7B5FF0F2000F008F8E7
:1037900000F0D2F90023184680BD00BF003C024073
:1037A00080B582B000AF7860124B1A68124B1B785C
:1037B00019464FF47A73B3FBF1F3B2FBF3F31846F7
:1037C000FFF7BFFF0346002B01D001230EE07B680B
:1037D0000F2B0AD8002279684FF0FF30FFF795FFD2
:1037E000064A7B681360002300E00123184608376F
:1037F000BD4680BD5C000020640000206000002009
:1038000080B400AF064B1B781A46064B1B68134466
:10381000044A136000BFBD465DF8047B704700BFDB
:10382000640000205803002080B400AF034B1B68E5
:103830001846BD465DF8047B704700BF5803002062
:1038400080B584B000AF7860FFF7EEFFB8607B68AA
:10385000FB60FB68B3F1FF3F05D00A4B1B781A46AB
:10386000FB681344FB6000BFFFF7DEFF0246BB6846
:10387000D31AFA689A42F7D800BF00BF1037BD4686
:1038800080BD00BF6400002080B500AFFFF766FF79
:1038900000F00EF800F0BAF800F09EF800F072F8B0
:1038A00001F0FEFA00F0FFFA00F008FB00BFFDE7B0
:1038B00080B594B000AF07F12003302200211846F4
:1038C000FDF78DFC07F10C0300221A605A609A6024
:1038D000DA601A610023BB60284B1B6C274A43F057
:1038E00080531364254B1B6C03F08053BB60BB6893
:1038F00000237B60224B1B68214A43F48043136002
:103900001F4B1B6803F480437B607B6801233B6291
:103910004FF480337B620223BB634FF48003FB636D
:1039200019233B644FF4A8737B640223BB64042314
:10393000FB6407F120031846FEF7DCFC0346002B6E
:1039400001D000F0C3F80F23FB6002233B6100238A
:103950007B614FF4A053BB614FF48053FB6107F1CF
:103960000C0305211846FEF73DFF0346002B01D04E
:1039700000F0ACF800BF5037BD4680BD00380240B3
:103980000070004080B500AF114B124A1A60104B16
:103990004FF4E1325A600E4B00229A600C4B002229
:1039A000DA600B4B00221A61094B0C225A61084B5A
:1039B00000229A61064B0022DA610548FDF74CFEB1
:1039C0000346002B01D000F081F800BF80BD00BF8E
:1039D0005C0300200010014080B483B000AF0023DE
:1039E0007B60094B1B6B084A43F480031363064B4F
:1039F0001B6B03F480037B607B6800BF0C37BD4604
:103A00005DF8047B704700BF0038024080B58AB083
:103A100000AF07F1140300221A605A609A60DA605E
:103A20001A6100233B61274B1B6B264A43F00403BA
:103A30001363244B1B6B03F004033B613B690023BE
:103A4000FB60204B1B6B1F4A43F0800313631D4B2D
:103A50001B6B03F08003FB60FB680023BB60194B0A
:103A60001B6B184A43F010031363164B1B6B03F0D8
:103A70001003BB60BB6800237B60124B1B6B114AB9
:103A800043F0010313630F4B1B6B03F001037B60D7
:103A90007B6801224FF460410B48FFF71BFB4FF49A
:103AA00060437B610123BB610023FB6100233B6218
:103AB00007F1140319460448FFF774F800BF2837CC
:103AC000BD4680BD003802400010024080B400AF07
:103AD00072B600BF00BFFDE780B400AF00BFFDE7D6
:103AE00080B400AF00BFFDE780B400AF00BFFDE7CA
:103AF00080B400AF00BFFDE780B400AF00BFFDE7BA
:103B000080B400AF00BFBD465DF8047B704780B451
:103B100000AF00BFBD465DF8047B704780B400AFC6
:103B200000BFBD465DF8047B704780B500AFFFF76E
:103B300067FE00BF80BD000080B483B000AF0023EB
:103B40007B60104B5B6C0F4A43F4804353640D4B16
:103B50005B6C03F480437B607B6800233B60094B14
:103B60001B6C084A43F080531364064B1B6C03F034
:103B700080533B603B6800BF0C37BD465DF8047B5B
:103B8000704700BF0038024080B58AB000AF78604F
:103B900007F1140300221A605A609A60DA601A6111
:103BA0007B681B68314A93425BD100233B61304BF9
:103BB0005B6C2F4A43F0100353642D4B5B6C03F096
:103BC00010033B613B690023FB60294B1B6B284AB8
:103BD00043F001031363264B1B6B03F00103FB60EF
:103BE000FB684FF4C0637B610223BB610023FB6170
:103BF00003233B6207237B6207F1140319461D4828
:103C0000FEF7D0FF1C4B1D4A1A601B4B4FF00062A1
:103C10005A60194B00229A60174B0022DA60164B4B
:103C20004FF480621A61144B00225A61124B002239
:103C30009A61114B4FF48072DA610F4B00221A62C5
:103C40000D4B00225A620C48FFF75EFA0346002B28
:103C500001D0FFF73BFF7B68074ADA63064A7B68BF
:103C6000936300BF2837BD4680BD00BF00100140F0
:103C70000038024000000240A403002040640240DB
:103C800080B582B000AF78607B681B680B4A9342B6
:103C90000FD10B4B5B6C0A4A23F0100353644FF4B3
:103CA000C0610848FFF71AF97B68DB6B1846FFF71D
:103CB000D9FA00BF0837BD4680BD00BF00100140E3
:103CC000003802400000024080B586B000AF786046
:103CD000144A154BD31A7B617B693B61134B1B68FC
:103CE000002B02D1114B124A1A60104B1A687B68E4
:103CF00013443A699A4207D202F074FA03460C223E
:103D00001A604FF0FF3309E0084B1B68FB60074B5C
:103D10001A687B681344054A1360FB681846183715
:103D2000BD4680BD00000220000400000404002005
:103D3000C00C002080B400AF01231846BD465DF8DA
:103D4000047B704780B582B000AF7860396002F0C4
:103D500049FA034616221A604FF0FF331846083717
:103D6000BD4680BD80B582B000AF78604FF0FF31B6
:103D70007868FFF7E7FF00BFFDE780B586B000AFCA
:103D8000F860B9607A6000237B610AE0AFF30080DD
:103D90000146BB685A1CBA60CAB21A707B6901330B
:103DA0007B617A697B689A42F0DB7B68184618373A
:103DB000BD4680BD80B586B000AFF860B9607A605E
:103DC00000237B6109E0BB685A1CBA601B78184667
:103DD000AFF300807B6901337B617A697B689A422B
:103DE000F1DB7B6818461837BD4680BD80B483B0D0
:103DF00000AF78604FF0FF3318460C37BD465DF8D2
:103E0000047B704780B483B000AF786039603B6852
:103E10004FF400525A60002318460C37BD465DF837
:103E2000047B704780B483B000AF786001231846EC
:103E30000C37BD465DF8047B704780B485B000AF99
:103E4000F860B9607A60002318461437BD465DF803
:103E5000047B7047DFF834D0FDF7ECFB0C480D49CC
:103E60000D4A002302E0D458C4500433C4188C42D5
:103E7000F9D30A4A0A4C002301E013600432A2423B
:103E8000FBD3FDF7FBF9FFF7FFFC704700000220B2
:103E900000000020F001002008840008F00100204C
:103EA000BC0C0020FEE780B500AF4FF4E1310020EC
:103EB00000F058F800F03EF900BF80BD80B500AFBB
:103EC00000F016F9FCE7000080B500AF1C4B0022A3
:103ED0001A721B4B00225A72194B00229A72184B0D
:103EE00000221A74164B002283F89521144B0022ED
:103EF00083F89621124B002283F89721104B002261
:103F000083F894210E4B0F4AC3F880260C4B0E4ABF
:103F1000C3F884260A4B0D4AC3F88826084B0C4A7E
:103F2000C3F88C26064800F079FB0A490A4800F0DD
:103F3000FFFD0A490A4800F0FBFD0123184680BD39
:103F400008040020ED4900083D4A0008954A000891
:103F5000DD4A0008C14B0008A07E0008314C000873
:103F6000A87E000880B582B000AF03463960FB71BF
:103F7000114AFB791370104B1B7A83F00103DBB2FB
:103F8000002B04D10C4B5B683A689A420ED03B6818
:103F9000002B0BD0084A3B685360FB793968184600
:103FA00001F02CF803461A46034B1A72024B1B7A97
:103FB00018460837BD4680BD0804002080B584B08F
:103FC00000AF7860344B5B7A002B61D07B68D87A85
:103FD0007B6893F8F1331A46304901F067F97B6842
:103FE000D87A7B6893F8F2331A462D4901F05EF9CE
:103FF0007B68D87A7B6893F8F0331A46294901F038
:1040000055F97B68D87A7B6803F56C731A462649A4
:1040100001F04CF97B68D87A7B6893F995311A46A0
:10402000224901F043F97B68D87A7B6893F896318E
:104030001A461F4901F03AF97B68D87A7B6893F8F1
:1040400097311A461B4901F031F90023FB6012E059
:104050007B68D87AFA6813465B0113445B0013440B
:1040600003F5CC737A681344FA68134901F01EF91A
:10407000FB680133FB607B6893F897311A46FB6855
:104080009342E5DB7B68DB7A0C49184601F00EF9B8
:1040900000BF1037BD4680BD08040020AC7E00087C
:1040A000BC7E0008CC7E0008DC7E0008EC7E0008A8
:1040B000FC7E00080C7F00081C7F00082C7F000895
:1040C00080B582B000AF78607B681B7806491846DF
:1040D00001F0ECF87B681B780449184601F0E6F81B
:1040E00000BF0837BD4680BD307F0008347F000820
:1040F00080B500AF0E4B1B7A83F00103DBB2002BBF
:1041000001D0002312E00A4B1B78184601F048F852
:104110000346002B09D0064B1B78184601F080F8A7
:1041200003461946024800F017F80123184680BDDF
:104130000804002080B500AF064B1B7A83F0010312
:10414000DBB2002B03D10348FFF7BAFF00E000BF4A
:1041500080BD00BF0804002080B58CB000AF78603F
:104160000B46FB70002387F823307B6803F56C73E4
:10417000FB617B681B7C002B40F06D81FB787F2B03
:104180002AD07F2B00F3DA801B2B21D01B2B00F3CE
:10419000D580082B62D00D2B40F0D080FB6993F8BE
:1041A0004230002B05D0786800F052FA786800F0B1
:1041B0001DFBFB69002283F84220FB69002283F883
:1041C0004120FB6900221A707868FFF779FF42E10D
:1041D0007B6801221A743EE1FB6993F84120FB6978
:1041E00093F842309A4280F03181FB6993F8422083
:1041F000FB6993F84130D31AFB760123FB6213E08D
:10420000FB6993F841301A46FB6A1A44FB6993F83C
:1042100041301946FB6A0B44013BF969895CFA6934
:10422000D154FB6A0133FB62FB7EFA6A9A42E7DBF8
:10423000FB6993F84230013BDAB2FB6983F8422014
:10424000FB6993F842301A46FB69002199547B6858
:104250001B788D49184601F029F8F7E0FB6993F8BF
:104260004230002B55D0FB6993F84130002B50D0E1
:10427000FB6993F84120FB6993F842309A420ED1D2
:10428000FB6993F84230013BDAB2FB6983F84220C4
:10429000FB6993F842301A46FB6900219954FB6987
:1042A00093F84120FB6993F842309A4231D2FB697E
:1042B00093F84220FB6993F84130D31ABB76002370
:1042C000BB6213E0FB6993F841301A46BB6A1A449B
:1042D000FB6993F841301946BB6A0B44013BF9690D
:1042E000895CFA69D154BB6A0133BB62BB7EBA6A8E
:1042F0009A42E7DBFB6993F84230013BDAB2FB6993
:1043000083F84220FB6993F842301A46FB6900218A
:104310009954FB6993F84130002B00F09980FB69B8
:1043200093F84130013BDAB2FB6983F841207B68A6
:104330001B785649184600F0B9FF89E0FB6993F8ED
:1043400042300133FA6992F84020934280F2828031
:10435000FB6993F84120FB6993F842309A4224D1DB
:104360007B681B78F91C0122184600F075FFFB6979
:1043700093F841301A46F978FB699954FB6993F830
:1043800042300133DAB2FB6983F84220FB6993F8CB
:1043900041300133DAB2FB6983F84120FB6993F8BD
:1043A00042301A46FB6900219954FB6993F8412079
:1043B000FB6993F842309A424CD2FB6993F8422051
:1043C000FB6993F84130D31A7B7600237B6213E0BC
:1043D000FB6993F842301A467B6AD31A5A1EFB696E
:1043E00093F8423019467B6ACB1AF969895CFA69FD
:1043F000D1547B6A01337B627B7E7A6A9A42E7DB27
:10440000FB6993F841301A46F978FB699954FB69C6
:1044100093F842300133DAB2FB6983F84220FB693A
:1044200093F841300133DAB2FB6983F84120FB692C
:1044300093F842301A46FB69002199547B681B7837
:10444000FA781349184600F031FF03E000BF02E09C
:1044500000BF00E000BF7B681B7C013B032B00F228
:10446000D08001A252F823F079440008814400086A
:1044700095440008F94500087B6802221A74C0E0E0
:104480007B6803221A74BCE03C7F0008447F00086C
:104490004C7F00087B6800221A74FB78442B1AD1E9
:1044A000FB6993F84130002B15D0FB6993F841303C
:1044B000013BDAB2FB6983F841201B233B735B238A
:1044C0007B73FB78BB737B681B7807F10C010322BD
:1044D000184600F0C1FEFB78432B1DD1FB6993F811
:1044E0004120FB6993F842309A4215D2FB6993F858
:1044F00041300133DAB2FB6983F841201B233B735F
:104500005B237B73FB78BB737B681B7807F10C0123
:104510000322184600F0A0FEFB78412B0CD10121AC
:10452000786800F0D9F87B681A787B6803F56C73BB
:104530001946104600F0BAFEFB78422B0CD1002140
:10454000786800F0C9F87B681A787B6803F56C73AB
:104550001946104600F0AAFEFB78312B0FD17B687C
:104560001878FB6993F841301A462A4900F09EFEFC
:10457000FB69002283F841207B6804221A74FB78CF
:10458000342B3DD1FB6993F84120FB6993F842300D
:104590009A420FD2FB6993F842301A46FB6993F8AE
:1045A0004130D31AFB827B681B78FA8A1A49184675
:1045B00000F07CFEFB6993F84120FB6993F84230E0
:1045C0009A420FD9FB6993F841301A46FB6993F878
:1045D0004230D31AFB827B681B78FA8A0D49184651
:1045E00000F064FEFB6993F84220FB6983F84120E8
:1045F0007B6804221A7403E07B6800221A7400E0CE
:1046000000BF7868FFF7DAFC97F823301846303798
:10461000BD4680BD587F0008607F000880B483B02D
:1046200000AF78607B68002283F8F2237B68002269
:1046300083F8F1237B683F2283F8F0237B68002214
:1046400083F8B02300BF0C37BD465DF8047B70478C
:1046500080B582B000AF78607B6893F896311A46D7
:10466000796813465B0113445B0013440B4403F564
:10467000CC727B68104603F56C734322194601F037
:10468000BFFD7B6893F89731072B07D87B6893F8B9
:1046900097310133DAB27B6883F897217B6893F80E
:1046A00096315AB27B6883F895217B6893F89631EE
:1046B00001335A4203F0070302F0070258BF534286
:1046C000DAB27B6883F896217B68012283F8942113
:1046D00000BF0837BD4680BD80B584B000AF7860AC
:1046E0000B46FB707B6893F89731002B76D07B6884
:1046F00093F8F133002B08D07B6818787B6893F827
:10470000F1331A46374900F0D1FD7B6893F8F23354
:10471000002B08D07B6818787B6893F8F2331A4630
:10472000314900F0C3FD97F90330012B25D17B6897
:1047300093F89431002B06D07B6893F896315AB2E7
:104740007B6883F895217B6893F995311A467B68DD
:1047500093F897311344013B7A6892F8972193FBC1
:10476000F2F101FB02F29B1A5AB27B6883F89521A1
:104770007B6893F99531FB7313E07B6893F995316E
:1047800001337A6892F8972193FBF2F101FB02F270
:104790009B1A5AB27B6883F895217B6893F995310F
:1047A000FB73FA7B7968786813465B0113445B00FE
:1047B0001344034403F5CC7201F56C731146432294
:1047C000184601F01DFD7B6893F8F2237B6883F89F
:1047D000F1237B68002283F8942100E000BF1037AA
:1047E000BD4680BD587F0008687F000880B584B052
:1047F00000AF78600023FB72786800F057F803463A
:10480000002B4BD0284800F099F87B68D3F814317E
:10481000184600F0B7F87B6801229A720023FB600B
:1048200032E07B68D3F81401FA6813469B00134406
:104830009B0003F57E737A6813441946FBF75EFE0E
:104840000346002B1DD17B68B3F81231013B9AB2AD
:104850007B68A3F878267B6803F58C727B68C3F8C5
:104860007C267968FA6813469B0013449B000B442E
:1048700003F581631B687A6802F5CF62104698479A
:1048800009E0FB680133FB607B68B3F8F4331A4638
:10489000FB689342C5DB7B6800229A72FB7A18465C
:1048A0001037BD4680BD00BF707F000880B588B05E
:1048B00000AF78600023FB770023FB827B68002237
:1048C000A3F812217B6803F56C733B617B6803F5E9
:1048D0008A73FB60FB8A9B00FA68134400221A600B
:1048E000154B1B6807F108021946386901F076FC80
:1048F000B86110E0FB8A5A1CFA829B00FA681344E4
:10490000BA691A600C4B1B6807F1080219460020AF
:1049100001F064FCB861BB69002BEBD17B68FA8ABB
:10492000A3F81221FB8A002B01D00123FB77FB7F28
:1049300018462037BD4680BD680000200FB480B502
:1049400084B000AF07F11C037B600D4BFB60FB687C
:1049500003F111007B68BA694FF4807101F0F6FB36
:10496000B860FB681878FB681133BA68194600F024
:1049700073FC00BF1037BD46BDE8804004B07047EF
:104980000804002080B485B000AF78600023FB816C
:1049900018E0FB897A6813441B787B737B7B002BC0
:1049A00014D07B7B602B05D97B7B7A2B02D87B7B59
:1049B000203B7B73FB897A6813447A7B1A70FB89EE
:1049C0000133FB81FB890F2BE3D900E000BFFB899A
:1049D000102B05D1FB89013B7A68134400221A7021
:1049E00000BF1437BD465DF8047B704780B584B0C6
:1049F00000AF0346FB710023FB600F4BBB60FB79EC
:104A00009AB2BB68B3F878369A4201D300230EE01D
:104A1000BB68D3F87C26FB799B0013441B680022FB
:104A20000021184601F05AFB0346FB60FB6818465C
:104A30001037BD4680BD00BF0804002080B584B09B
:104A400000AF0346FB714FF00003FB60104BBB60EF
:104A5000FB799AB2BB68B3F878369A4202D34FF02A
:104A600000030DE0BB68D3F87C26FB799B00134460
:104A70001B680021184601F05FFA87ED030AFB6806
:104A800007EE903AB0EE670A1037BD4680BD00BF12
:104A90000804002080B485B000AF0346FB710023FA
:104AA000FB600D4BBB60FB799AB2BB68B3F87836FC
:104AB0009A4201D3002308E0BB68D3F87C26FB7937
:104AC0009B0013441B68FB60FB6818461437BD4607
:104AD0005DF8047B704700BF0804002080B584B0F7
:104AE00000AF03463960FB710023FB730F4BBB60C3
:104AF000FB799AB2BB68B3F878369A4201D30023A7
:104B000010E0BB68D3F87C26FB799B0013441B683C
:104B100019463868FBF7F2FC0346002B01D101234C
:104B2000FB73FB7B18461037BD4680BD0804002090
:104B300080B586B000AF786039600123FB751F4BEC
:104B40003B613B69B3F8F4331F2B01D9002330E0FC
:104B50003B69B3F8F433FB81FA8913469B00134495
:104B60009B0003F57E733A6913447968184601F097
:104B70003FFBFA89396913469B0013449B000B44A1
:104B800003F581633A681A60FA8913469B0013445F
:104B90009B0003F57E733A6913441846FFF7F2FE53
:104BA0003B69B3F8F43301339AB23B69A3F8F423B9
:104BB000FB7D18461837BD4680BD00BF08040020A5
:104BC00080B584B000AF7860154BBB601548FFF727
:104BD000B5FE1548FFF7B2FE0023FB6011E0FA684E
:104BE00013469B0013449B0003F57E73BA6813447D
:104BF0001846FFF7A3FE0B48FFF7A0FEFB68013342
:104C0000FB60BB68B3F8F4331A46FB689342E6DBFB
:104C10000648FFF793FE00BF1037BD4680BD00BFBA
:104C200008040020707F0008747F0008947F00084B
:104C300080B58CB000AF78601023BB627B681B88A6
:104C40007B617B685B683B617B681B88002B03D1C1
:104C50004248FFF773FE7DE07B69012B09DD3B696C
:104C600004331B6800220021184601F037FA03467E
:104C7000BB623B691B6800220021184601F02EFA36
:104C800003467B627B6ABB613548FFF757FE002312
:104C9000FB625BE0FB6A03F00303002B04D17B6A39
:104CA00019463048FFF74AFE7B6A1B6819462E48B2
:104CB000FFF744FEFB6A5A4203F0030302F00302CB
:104CC00058BF5342032B3BD12848FFF737FE002340
:104CD0003B622CE0BB691B68FB600023FB611DE0AD
:104CE00007F10C02FB6913441B781F2B10D907F145
:104CF0000C02FB6913441B787E2B09D807F10C02C8
:104D0000FB6913441B7819461948FFF717FE02E0A8
:104D10001848FFF713FEFB690133FB61FB69032BA6
:104D2000DEDDBB690433BB613B6A01333B623B6A36
:104D3000032BCFDD1048FFF701FE012000F0CEF875
:104D40007B6A04337B62FB6A0133FB62FA6ABB6AEB
:104D50009A429FDB3037BD4680BD00BFB47F00085C
:104D6000C87F0008D07F0008DC7F0008E47F0008CF
:104D7000E87F0008EC7F0008F07F000880B487B06F
:104D800000AFF860B9607A600123FB75FB68002210
:104D90001A60FB6800225A60FB687A689A60FB68B8
:104DA0000122DA60FB68BA681A61FB7D18461C377D
:104DB000BD465DF8047B704780B489B000AFF860F1
:104DC000B9607A600123FB770023BB6142E0FB6896
:104DD0001B69002B25D0BB68002B22D0FB681A6909
:104DE000FB685B68F968C96801FB03F313443B6126
:104DF00000237B610AE07B693A691A447B69B968E0
:104E00000B4412781A707B6901337B61FB68DB68A5
:104E10001A467B699342EEDBFB68DB68BA68134491
:104E2000BB60FB685A68FB681B689A420CD0FB6841
:104E30005B680133FA689268B3FBF2F101FB02F29E
:104E40009A1AFB685A6002E00023FB7706E0BB6910
:104E50000133BB617B68BA699A42B8DBFB7F1846B5
:104E60002437BD465DF8047B704780B485B000AF41
:104E700078607B689A687B681B681A447B685B680B
:104E8000D31A7A689268B3FBF2F101FB02F29B1A23
:104E9000FB60FB6818461437BD465DF8047B70471D
:104EA00080B582B000AFFFF70FF800F022F800F0F5
:104EB00057F800237B6009E07B68DBB24FF4E131F7
:104EC000184600F09BF87B6801337B607B68002B01
:104ED000F2DD012318460837BD4680BD80B582B09B
:104EE00000AF78607868FEF7ABFC00BF0837BD46BE
:104EF00080BD80B582B000AF00237B6007E07B6897
:104F0000DBB2184600F00CF87B6801337B607B68ED
:104F1000022BF4DD012318460837BD4680BD000092
:104F200080B582B000AF0346FB71FB79022B11D82C
:104F3000FB790A4A52F83300FB79084ADB00134434
:104F40009988FB79054ADB001344DB791A46FEF7A2
:104F5000C1F800E000BF0837BD4680BD6C000020EE
:104F600080B582B000AF00237B6037E021497A68CA
:104F700013461B0113445B010B4400221A701D49A8
:104F80007A6813461B0113445B010B4404334FF44E
:104F9000E1321A6017497A6813461B0113445B011A
:104FA0000B4403F5077300221A607A6813461B014D
:104FB00013445B0108330F4A98187A6813461B01A3
:104FC00013445B0118330B4A134404334FF400724B
:104FD0001946FFF7D3FE7B6801337B607B68002BAB
:104FE000C4DD054B01221A70034B1B7818460837A5
:104FF000BD4680BD9C0A0020980A002080B584B080
:1050000000AF03463960FB710023FB73FB79002B73
:1050100040F0BC80FA79604913461B0113445B01E0
:105020000B4403F507735D4A1A60FA795A4913462F
:105030001B0113445B010B4403F507731B683A68BB
:105040005A60FA79544913461B0113445B010B441F
:1050500004333A681A60FA794F4913461B01134426
:105060005B010B4400221A70FA794B4913461B016D
:1050700013445B010B4403F507731B681846FCF7E8
:105080003BFBFA79444913461B0113445B010B4473
:1050900003F507731B681846FCF7DEFA0346002B7E
:1050A00008D1FA793C4913461B0113445B010B44B8
:1050B00001221A70FA79384913461B0113445B0127
:1050C0000B441B78002B57D0FA79334913461B0148
:1050D00013445B010B4403F507731868FA79134610
:1050E0001B0113445B0118332B4A134404334FF460
:1050F00000721946FCF7BDFB0346BB73BB7B002B5C
:1051000008D0FA79244913461B0113445B010B4470
:1051100000221A70FA79204913461B0113445B01DF
:105120000B4410331968FA791B4813461B011344CA
:105130005B01034403F507731B68DB6B1B685B684B
:10514000FA79C91A144813461B0113445B0103443E
:1051500008331960F979FA790F480B461B010B44A3
:105160005B010344083319680B4813461B011344C1
:105170005B0103440C331960FA79074913461B019C
:1051800013445B010B441B78FB7300E000BFFB7B07
:1051900018461037BD4680BD9C0A00205C030020E5
:1051A00080B584B000AF0346FB710023FB60FB7940
:1051B000002B01D000232CE0FA79184913461B017B
:1051C00013445B010B4410331968FA7913481346F2
:1051D0001B0113445B01034403F507731B68DB6B7E
:1051E0001B685B68FA79C91A0C4813461B01134403
:1051F0005B01034408331960FA7913461B01134419
:105200005B010833054A13441846FFF72EFEF86089
:10521000FB6818461037BD4680BD00BF9C0A0020C1
:1052200080B584B000AF0346FB710023FB73FA79AD
:1052300013461B0113445B010833064A134407F16C
:105240000F0101221846FFF7B7FDFB7B1846103708
:10525000BD4680BD9C0A002080B586B000AF0346E5
:10526000B9607A60FB7300237B61FB7B002B01D06C
:10527000002315E0FA7B0C4913461B0113445B0124
:105280000B4403F5077318687B689AB26423B96806
:10529000FCF764FA0346002B01D17B687B617B69D4
:1052A00018461837BD4680BD9C0A00200EB480B554
:1052B000C7B000AF024607F58C73A3F211131A7042
:1052C00007F58C73A3F211131B78002B01D0002378
:1052D00025E007F5947207F58C73A3F586731A60C1
:1052E00007F58C73A3F5867307F110001B68D7F8D8
:1052F00024214FF4807100F029FFC7F81401D7F87A
:10530000142107F1100107F58C73A3F211131B7818
:105310001846FFF7A1FFC7F81001D7F8103118465B
:1053200007F58E77BD46BDE8804003B0704770B585
:1053300004460D4645EC104B164601F037FE51EC85
:10534000100B7EB1C5F30A53C3F16B03002B09DDCB
:105350001B0503F17F55002405F5401522462B4619
:10536000FBF7E2FA41EC100B70BD000000000000FA
:105370002DE9F04F9FB00C46179200221A9205902B
:105380004FF0000A4FF0000B0A46199211782B29B2
:105390004AD038D80D2932D8082932D800293BD034
:1053A00000220E92199D2A78302A40F0B2806A7845
:1053B00002F0DF02582A6ED102930E9B01931AABC2
:1053C00000938F4A05981BAB19A900F09FFF10F0BE
:1053D0000F06044605D0062E28D101350023199565
:1053E0000E93179B002B40F08E850E9BCBB152463F
:1053F0000BF1004343EC102B1FB0BDE8F08F2029C8
:10540000CED10132C1E72D29CAD101210E91511C03
:1054100019915278002AC5D1179B1994002B40F09E
:10542000708552465B46E5E70021EFE71A9A3AB1EC
:1054300035211CA801F0B4FE1A99059801F08AFAEA
:10544000013E1B9A042E06D8DFE806F014031D2047
:105450001400DDE91CABE10548BF4BF0004B2BF01D
:1054600000431B0D1B05002BBBD100F0BBFE22230C
:105470000360B6E7DDE91CA302F2334223F4801394
:1054800043EA025BE7E7DFF880B1E4E76FF0004B47
:105490004FF0FF3ADFE7199B5A1C19925B78302BCB
:1054A000F9D0002B9DD0012300270893199B0C9362
:1054B0000B97B9460A2219980578A5F13003D9B29D
:1054C000092928D94F49012200F04EFE002832D088
:1054D00000202A460A904D460346652A01D0452AF7
:1054E00014D11DB9089A024396D00025199C621C5C
:1054F000199262782B2A7AD02D2A7ED04FF0000C98
:10550000A2F13001092940F2858019944FF000087A
:10551000A5E00023C8E7B9F1080FD8BF0B9900F147
:105520000100DABF02FB01330B9302FB073709F1DD
:1055300001091990BFE7199B5A1C19925A78B9F1C1
:10554000000F3BD00A904D46A2F13003092B12D92F
:105550000123C2E7199B5A1C19925A780130302A4C
:10556000F8D0A2F13103082B00F2D284199B0A90E3
:1055700000200C930546303A00F1010318D00A9937
:1055800019440A912E464FF00A0E711CA1EB050C2E
:10559000634515DC20EAE0702B18082B05F10105A6
:1055A00005441ADC0B990A2303FB01230B93002308
:1055B000199A511C199152781846C5E74846CEE70A
:1055C000082E05DC0B9E0EFB06F60B960E46DCE75E
:1055D0001029D8BF0EFB07F7F8E70F2BDCBF0A2313
:1055E00003FB0727E3E700230A9301237AE74FF041
:1055F000000CA21C1992A27882E74FF0010CF8E788
:10560000BC810008408000080000F07F199A511CFE
:1056100019915278302AF9D0A2F1310108293FF6C8
:1056200075AF303A0992199A0F924FF00A08199AF9
:10563000561C19965278A2F1300EBEF1090F39D9D5
:105640000F99761A082E44F61F6803DC09998845DD
:10565000A8BF8846BCF1000F01D0C8F10008002D9A
:105660004ED1089908437FF4BCAE002B7FF4D4AE32
:10567000692A28D025DC492A25D04E2A7FF4CCAED1
:105680009A4919A801F064F800283FF4C5AE199BA7
:105690001B78282B2ED196491CAA19A801F06CF86A
:1056A000052827D11D9BDDF870A043F0FF4B4BF47C
:1056B000E00B96E6099908FB0121A1F1300209925D
:1056C000B5E76E2ADAE78B4919A801F041F80028FE
:1056D0003FF4A2AE199B8849013B19A8199301F028
:1056E00037F810B9199B01331993DFF81CB24FF04A
:1056F000000A76E6814800F093FD5BEC10AB70E6A3
:105700000A9B0B98A8EB0303B9F1000F08BFA94649
:10571000102D09932C46A8BF1024FBF78BF8092DF8
:1057200082468B4613DC099B002B3FF45AAE099B43
:1057300078DD162B5FDC724901EBC301D1E9000172
:1057400052465B46FBF7F0F882468B4649E66C4BC7
:1057500003EBC40353E91223FBF7E6F8824638460D
:105760008B46FBF767F802460B4650465946FAF758
:1057700025FF0F2D82468B46D5DD099B2C1B1C4433
:10578000002C40F3938014F00F030AD05C4901EB26
:10579000C30152465B46D1E90001FBF7C5F88246DA
:1057A0008B4634F00F0473D0B4F59A7F49DD0024A2
:1057B000A0460B94A146059ADFF84CB12223136052
:1057C0004FF0000A0B9B002B3FF40BAE1A99059883
:1057D00001F0C0F80598494601F0BCF8059841462B
:1057E00001F0B8F80B99059801F0B4F80598214636
:1057F00001F0B0F8F5E5099AC5F125039342BCDB49
:105800003F4CC5F10F0504EBC50152465B46D1E99B
:105810000001FBF789F8099B5D1B04EBC504D4E983
:1058200000238FE71633A8DB0A9BA3EB0808344B51
:1058300003EBC808D8E9002350465946FBF79EF908
:1058400082E700232F4F2411504659461E46012C53
:1058500021DC0BB182468B462A49ABF1547B01EB2C
:10586000C60152465B46D1E90001FBF75DF8264BC5
:105870000A460B4025498B42824698D8A1F58011F3
:105880008B4286BFDFF888B04FF0FF3A02F1547BBD
:105890000023089376E0E20704D5D7E90023FBF75D
:1058A00043F80123013664100837D0E7F0D0644292
:1058B00014F00F020AD0124B03EBC20350465946B4
:1058C000D3E90023FBF75AF982468B462411DFD037
:1058D0001F2C1FDD0024A0460B94A146059A22230D
:1058E0004FF0000A4FF0000B13606BE74B8000088D
:1058F000A88100084280000845800008A5810008B2
:1059000030830008088300080000F07F0000A07CBE
:10591000FFFFEF7F14F0100318BF6A23A94E08930E
:10592000504659460023E70704D5D6E90023FAF785
:10593000FBFF0123641006F10806F4D10BB1824687
:105940008B46089BB3B1CBF30A52C2F16B03002B19
:1059500059460FDD1F2B56DD342BDEBF4FF0FF33D2
:10596000C2F14B0293404FF0000ACCBF4FF05C7B7A
:1059700003EA010B0022002350465946FBF73CFA8C
:105980000028A7D10B9B00930C9905982B464A46FB
:1059900001F048F80B9000283FF409AF099A0A9BE0
:1059A000002AA3EB0803A8BF00231293002422EAD5
:1059B000E2731693A0460B9B0598596800F08AFF86
:1059C000814600283FF4F7AE0B9B1A69023203F1BF
:1059D0000C0192000C3000F013FC4BEC10AB05985E
:1059E0001CAA1BA9CDE90CAB01F050FB1A900028B2
:1059F0003FF4E1AE0598012101F0AAF8804648B9CC
:105A00004FF00008D7E64FF0FF3202FA03F303EA43
:105A10000A0AAFE71B9D1C9A002DABBF129B169B79
:105A2000169E129FACBFEF185E1B089BED1A154423
:105A3000654B013D9D42C2F1360250DA5B1B1F2BC4
:105A4000A2EB03024FF001013DDC01FA03F31393D3
:105A500000231093BD18089BAF4216441E443B46DA
:105A6000A8BF2B46B342A8BF3346002BC2BFED1AD6
:105A7000F61AFF1A129B002B16DD414605981A46AE
:105A800001F01EF980460028BAD001461A9A0598FE
:105A900001F074F80A9000283FF48DAE1A99059829
:105AA00000F058FF0A9B1A93002D1DDC099B002B68
:105AB00023DD4946169A059801F002F98146E0B9BE
:105AC0004FF0000977E6C5F17F4505F57F0505F53F
:105AD0007B45E23501FA05F310931391BAE70023F1
