:020000040800F2
:1000000000000220C52E0008692C0008712C000891
:10001000792C0008812C0008892C000800000000C1
:10002000000000000000000000000000912C00080B
:100030009F2C000800000000AD2C0008BB2C00081D
:10004000152F0008152F0008152F0008152F000880
:10005000152F0008152F0008152F0008152F000870
:10006000152F0008152F0008152F0008152F000860
:10007000152F0008152F0008152F0008152F000850
:10008000152F0008152F0008152F0008152F000840
:10009000152F0008152F0008152F0008152F000830
:1000A000152F0008152F0008152F0008152F000820
:1000B000152F0008152F0008152F0008152F000810
:1000C000152F0008152F0008152F0008152F000800
:1000D000152F0008152F0008152F0008152F0008F0
:1000E000152F0008152F0008152F0008152F0008E0
:1000F000152F0008152F0008152F0008152F0008D0
:10010000152F0008152F0008152F0008152F0008BF
:10011000152F0008152F0008152F0008152F0008AF
:10012000152F0008152F0008152F0008152F00089F
:10013000152F0008152F0008152F0008152F00088F
:10014000152F0008152F0008152F0008152F00087F
:10015000152F0008152F0008152F0008152F00086F
:10016000152F0008152F0008152F0008152F00085F
:10017000152F0008152F0008152F0008000000009B
:08018000152F0008152F0008DF
:1001900010B5054C237833B9044B13B10448AFF3C1
:1001A00000800123237010BD7400002000000000B7
:1001B000EC3B000808B5034B1BB103490348AFF300
:1001C000008008BD0000000078000020EC3B000823
:1001D00053B94AB9002908BF00281CBF4FF0FF31AE
:1001E0004FF0FF3000F088B9ADF1080C6DE904CE96
:1001F00000F006F8DDF804E0DDE9022304B0704702
:100200002DE9F047089D8E4604468846002B4AD1CA
:100210008A42174662D9B2FA82F64EB1C6F120037D
:1002200001FA06F820FA03F3B74043EA0808B4409D
:100230004FEA174E1FFA87FCB8FBFEF1230C0EFBAA
:10024000118843EA084301FB0CF29A4209D9FB18D2
:1002500001F1FF3080F0EA809A4240F2E7800239F3
:100260003B449A1AA3B2B2FBFEF00EFB102243EA03
:10027000024300FB0CFC9C4509D9FB1800F1FF323E
:1002800080F0D6809C4540F2D3803B44023840EA5F
:100290000140A3EB0C0300211DB1F3400022C5E98E
:1002A0000032BDE8F0878B4205D90DB1C5E90001E8
:1002B00000210846F5E7B3FA83F1002946D17345DA
:1002C00002D3824200F20581841A6EEB0302012000
:1002D0009046002DE5D0C5E90048E2E7002A00F08D
:1002E0009080B2FA82F6002E40F0A4808A1A030CA5
:1002F0004FEA174E80B2BCB20121B2FBFEFC0EFBEE
:100300001C2243EA024304FB0CF29A4207D9FB1871
:100310000CF1FF3802D29A4200F2E080C4469B1AE8
:10032000B3FBFEF20EFB123340EA034302FB04F47C
:100330009C4207D9FB1802F1FF3002D29C4200F226
:10034000CA8002461B1B42EA0C40A5E7C1F1200609
:100350008B4022FA06F71F430EFA01F420FA06F347
:100360002EFA06FE4FEA1749234300FA01F81FFA56
:1003700087FCBEFBF9F01C0C09FB10EE44EA0E44AE
:1003800000FB0CFEA64502FA01F209D93C1900F166
:10039000FF3A80F09C80A64540F2998002383C44A8
:1003A000A4EB0E041FFA83FEB4FBF9F309FB13441C
:1003B0004EEA044403FB0CFCA44508D93C1903F1A4
:1003C000FF3E80F08280A4457FD9023B3C4443EA53
:1003D0000040A4EB0C04A0FB02EC64457346E1462C
:1003E00062D35FD05DB1B8EB030264EB090404FA99
:1003F00006F622FA01F31E43CC40C5E90064002151
:100400004FE7B1FBF2FC010C41EA0E4180B240EA39
:1004100001423B4638463C46B846BE462026B1FB24
:10042000F7F1A2EB080241EA0C4166E7014618E742
:1004300010462CE7C6F120022EFA02F3B740B14075
:1004400020FA02F24FEA174E0A43B3FBFEF8BCB2A1
:100450000EFB1833110C41EA034108FB04F9B040CC
:1004600089454FEA104380B23ED9791808F1FF3C24
:1004700001D289451FD8A1EB0901B1FBFEF909FBA7
:1004800004F80EFB191192B242EA0142424529D208
:10049000BA1809F1FF31C4D24245C2D2A9F1020112
:1004A0003A44BEE7F0459DD2BEEB02036CEB070C6D
:1004B0000138E14696E7A7EB09094944A8F1020C87
:1004C000B1FBFEF909FB04F8DBE773467FE7504612
:1004D00066E70846FDE63B44023A33E7ACF1020C1E
:1004E0003B441CE749469CE7A1EB0901C446B1FB2C
:1004F000FEF909FB04F8C4E7704700BF00000000E4
:1005000001F0FF01102A2BDB10F0070F08D010F8C4
:10051000013B013A8B422DD010F0070F42B3F6D1C8
:10052000F0B441EA012141EA014122F007047FF0E1
:1005300000070023F0E80256083C85EA010586EA38
:10054000010685FA47F5A3FA87F586FA47F6A5FA74
:1005500087F68EB9EED1F0BC01F0FF0102F0070280
:1005600032B110F8013B013A83EA010313B1F8D12B
:100570000020704701387047002D06BF354603380C
:10058000073815F0010F07D1013015F4807F02BF45
:10059000013015F4C03F0130F0BC0138704700BF96
:1005A00002440346934200D1704703F8011BF9E768
:1005B00070B50D4D0D4C641BA4100026A64209D148
:1005C0000B4D0C4C03F012FB641BA4100026A6423A
:1005D00005D170BD55F8043B98470136EEE755F854
:1005E000043B98470136F2E76C3C00086C3C00087D
:1005F0006C3C0008703C00087047704738B50546F1
:10060000002941D051F8043C0C1F002BB8BFE4185E
:1006100000F0E0F81D4A136833B96360146028469F
:10062000BDE8384000F0DCB8A34208D920682118A2
:100630008B4201BF19685B6809182160EDE71A4613
:100640005B680BB1A342FAD911685018A0420BD1D4
:1006500020680144501883421160E0D118685B683B
:10066000536008441060DAE702D90C232B60D6E708
:10067000206821188B4204BF19685B68636004BF5F
:10068000091821605460CAE738BD00BFD4010020BA
:1006900070B50F4E0C463168054611B900F0A6F84A
:1006A00030602146284600F0A1F8431C03D14FF0EA
:1006B000FF34204670BDC41C24F00304A042F8D0CF
:1006C000211A284600F092F80130F2D1EFE700BF7E
:1006D000D00100202DE9F843CD1C25F00305083595
:1006E0000C2D38BF0C25002D064601DBA94204D98C
:1006F0000C2333600020BDE8F883DFF8D48000F0DD
:1007000069F8D8F800301C4644BB29463046FFF74C
:10071000BFFF431C044658D1D8F800402746002F9D
:1007200043D1002C4BD023683946304604EB0309F3
:1007300000F05CF8814542D121686D1A29463046A7
:10074000FFF7A6FF01303AD023682B442360D8F886
:1007500000305A6862BBC8F800700FE02268521B74
:1007600020D40B2A17D96119A342256018BF5960FC
:10077000636808BFC8F8001062514B60304600F053
:100780002FF804F10B00231D20F00700C21A1CBF34
:100790001B1AA350AFE76268A3420CBFC8F8002041
:1007A0005A60EBE723466468AEE73C467F68B6E7ED
:1007B0001A465B68A342FBD100235360DEE70C239B
:1007C0003360304600F00CF894E70560D6E700BFD0
:1007D000D40100200148FFF70FBF00BFCC0100206B
:1007E0000148FFF70ABF00BFCC01002038B5064D15
:1007F0000023044608462B6002F02EFB431C02D166
:100800002B6803B1236038BDC801002080B400AF5D
:10081000064BD3F88830054A43F47003C2F8883099
:1008200000BFBD465DF8047B704700BF00ED00E0EF
:1008300080B582B000AF78607B68002B01D10123C6
:1008400042E07B6893F84130DBB2002B06D17B6835
:10085000002283F84020786802F05EFA7B68242248
:1008600083F841207B681B68DA687B681B6822F488
:100870000052DA60786800F0B5FB7B681B681A6983
:100880007B681B6822F490421A617B681B685A6976
:100890007B681B6822F02A025A617B681B68DA6851
:1008A0007B681B6842F40052DA607B6800225A645D
:1008B0007B68202283F841207B68202283F8422035
:1008C0007B6800225A63002318460837BD4680BD66
:1008D00080B582B000AF78607B68002B01D1012326
:1008E00024E07B68242283F841207B681B68DA6857
:1008F0007B681B6822F40052DA60786802F088FA9C
:100900007B6800225A647B68002283F841207B6860
:10091000002283F842207B6800221A637B68002251
:100920005A637B68002283F840200023184608376A
:10093000BD4680BD80B58AB002AFF860B9603B604B
:100940001346FB8000237B61FB6893F84130DBB2E8
:10095000202B75D1BB68002B02D0FB88002B01D166
:1009600001236EE0FB6800225A64FB68212283F8B1
:10097000412002F045F87861FB68FA889A84FB68A8
:10098000FA88DA84FB689B68B3F5805F08D1FB685E
:100990001B69002B04D10023FB61BB68BB6103E032
:1009A000BB68FB610023BB612EE03B6800937B6961
:1009B00000228021F86800F095F90346002B05D04D
:1009C000FB68202283F8412003233AE0FB69002BD7
:1009D0000BD1BB691B881A46FB681B68C2F308026F
:1009E0005A60BB690233BB6107E0FB691A78FB6898
:1009F0001B685A60FB690133FB61FB68DB8C9BB2AF
:100A0000013B9AB2FB68DA84FB68DB8C9BB2002B5B
:100A1000CBD13B6800937B6900224021F86800F04D
:100A200061F90346002B05D0FB68202283F84120A2
:100A3000032306E0FB68202283F84120002300E026
:100A4000022318462037BD4680BD80B584B000AF74
:100A5000F860B9601346FB80FB6893F84230DBB264
:100A6000202B12D1BB68002B02D0FB88002B01D1B8
:100A700001230BE0FB6800221A63FB881A46B96861
:100A8000F86800F089F9034600E0022318461037A1
:100A9000BD4680BD80B483B000AF786000BF0C3726
:100AA000BD465DF8047B704780B483B000AF7860CA
:100AB00000BF0C37BD465DF8047B704780B483B03F
:100AC00000AF786000BF0C37BD465DF8047B70470F
:100AD00080B483B000AF78600B467B8000BF0C37DA
:100AE000BD465DF8047B704780B59CB000AF786070
:100AF0007B689B6BFB667B681B681B6803F48073D9
:100B0000002B72D1FB6E0022DA85FB6E1B680C3362
:100B1000FB64FB6C53E8003FBB64BB6C23F4807345
:100B2000BB66FB6E1B680C33BA6EBA657B65796D6C
:100B3000BA6D41E800233B653B6D002BE5D1FB6EB0
:100B40001B681433BB63BB6B53E8003F7B637B6B59
:100B500023F001037B66FB6E1B6814337A6E7A64A4
:100B60003B64396C7A6C41E80023FB63FB6B002B20
:100B7000E5D1FB6E1B6814337B627B6A53E8003F50
:100B80003B623B6A23F040033B66FB6E1B681433F9
:100B90003A6E3A63FB62F96A3A6B41E80023BB6242
:100BA000BB6A002BE5D1FB6E202283F84220FB6E4E
:100BB0001B6B012B19D1FB6E1B680C333B613B692E
:100BC00053E8003FFB60FB6823F01003FB65FB6EFE
:100BD0001B680C33FA6DFA61BB61B969FA6941E8C7
:100BE00000237B617B69002BE5D1FB6E00225A63F9
:100BF000FB6E1B6B012B06D1FB6E9B8D1946F86EAD
:100C0000FFF766FF02E0F86EFFF744FF00BF7037A2
:100C1000BD4680BD80B584B000AF78607B689B6BBB
:100C2000FB60FB6801225A63FB681B6B012B08D138
:100C3000FB689B8D5B089BB21946F868FFF748FF7D
:100C400002E0F868FFF730FF00BF1037BD4680BDF7
:100C500080B584B000AF78600023FB607B689B6B3D
:100C6000BB60BB681B685B6903F08003802B0CBF13
:100C700001230023DBB2FB60BB6893F84130DBB299
:100C8000212B08D1FB68002B05D0BB680022DA8439
:100C9000B86800F01BF9BB681B685B6903F0400390
:100CA000402B0CBF01230023DBB2FB60BB6893F831
:100CB0004230DBB2222B08D1FB68002B05D0BB6889
:100CC0000022DA85B86800F029F9BB685B6C43F054
:100CD0001002BB685A64B868FFF7F0FE00BF103717
:100CE000BD4680BD80B586B000AFF860B9603B609E
:100CF0001346FB713BE03B6AB3F1FF3F37D001F095
:100D00007FFE02463B68D31A3A6A9A4202D33B6A94
:100D1000002B01D103233AE0FB681B68DB6803F07A
:100D20000403002B23D0BB68802B20D0BB68402B52
:100D30001DD0FB681B681B6803F00803082B16D145
:100D400000237B61FB681B681B687B61FB681B6879
:100D50005B687B617B69F86800F0E0F8FB6808225B
:100D60005A64FB68002283F8402001230FE0FB68EF
:100D70001B681A68BB681340BA689A420CBF01230B
:100D80000023DBB21A46FB799A42B4D000231846FE
:100D90001837BD4680BD000080B598B000AFF86040
:100DA000B9601346FB80BA68FB689A62FB68FA88F0
:100DB0009A85FB6800225A64FB68222283F842204D
:100DC000FB68DB6B3E4ADA63FB68DB6B3D4A1A6407
:100DD000FB68DB6B3C4ADA64FB68DB6B00221A655C
:100DE00007F10803FB65FB68D86BFB681B680433DD
:100DF0001946FB6D1A68FB8801F07EFB00233B61FE
:100E0000FB681B681B683B61FB681B685B683B6198
:100E10003B69FB681B69002B19D0FB681B680C330E
:100E20003B643B6C53E8003FFB63FB6B43F4807314
:100E3000BB65FB681B680C33BA6DFA64BB64B96CA4
:100E4000FA6C41E800237B647B6C002BE5D1FB68E6
:100E50001B681433FB62FB6A53E8003FBB62BB6A4A
:100E600043F001037B65FB681B6814337A6DBA633A
:100E70007B63796BBA6B41E800233B633B6B002BD0
:100E8000E5D1FB681B681433BB61BB6953E8003FC5
:100E90007B617B6943F040033B65FB681B6814334F
:100EA0003A6D7A623B62396A7A6A41E80023FB61F3
:100EB000FB69002BE5D1002318466037BD4680BD95
:100EC000E90A0008150C0008510C000880B489B02C
:100ED00000AF78607B681B680C33FB60FB6853E8ED
:100EE000003FBB60BB6823F0C003FB617B681B68ED
:100EF0000C33FA69BA617B617969BA6941E8002308
:100F00003B613B69002BE5D17B68202283F84120BF
:100F100000BF2437BD465DF8047B704780B495B0B0
:100F200000AF78607B681B680C337B637B6B53E896
:100F3000003F3B633B6B23F49073FB647B681B684F
:100F40000C33FA6C3A64FB63F96B3A6C41E80023AA
:100F5000BB63BB6B002BE5D17B681B6814333B6222
:100F60003B6A53E8003FFB61FB6923F00103BB646C
:100F70007B681B681433BA6CFA62BB62B96AFA6A9E
:100F800041E800237B627B6A002BE5D17B681B6B09
:100F9000012B19D17B681B680C33FB60FB6853E89D
:100FA000003FBB60BB6823F010037B647B681B6859
:100FB0000C337A6CBA617B617969BA6941E80023C4
:100FC0003B613B69002BE5D17B68202283F84220FE
:100FD0007B6800221A6300BF5437BD465DF8047B6E
:100FE000704700002DE9B04FC0B000AFC7F8F40063
:100FF000D7F8F4301B681B6923F44050D7F8F4305D
:10100000D968D7F8F4301A6840EA01031361D7F8B9
:10101000F4309A68D7F8F4301B691A43D7F8F430E3
:101020005B691A43D7F8F430DB691343C7F8F8302B
:10103000D7F8F4301B68DB6823F4164121F00C016B
:10104000D7F8F4301A68D7F8F8300B43D360D7F8E4
:10105000F4301B685B6923F44070D7F8F430996969
:10106000D7F8F4301A6840EA01035361D7F8F43036
:101070001A688F4B9A4205D0D7F8F4301A688D4B16
:101080009A4204D100F066FEC7F8FC0003E000F0CD
:101090004DFEC7F8FC00D7F8F430DB69B3F5004F1C
:1010A00040F00C81D7F8FC300022C7F8E830C7F8D0
:1010B000EC20D7E93A4522462B469118B9655B41A9
:1010C000FB65D7E91623214612EB0108294643EBBD
:1010D00001094FF000024FF000034FEAC90343EA51
:1010E00058734FEAC80290469946234618EB03030B
:1010F000C7F8E0302B4649EB0303C7F8E430D7F8D4
:10110000F4305B680022C7F8D830C7F8DC20D7E994
:1011100036120B46DB183B65134642EB03037B6537
:10112000D7E91423D7E93801FFF752F802460B46F6
:10113000614BA3FB02235B091C01D7F8FC300022A2
:10114000C7F8D030C7F8D420D7E9348942464B4697
:101150009118B9645B41FB64D7E91223414612EB55
:10116000010A494643EB010B4FF000024FF0000328
:101170004FEACB0343EA5A734FEACA0292469B46B0
:1011800043461AEB0303C7F8C8304B464BEB030347
:10119000C7F8CC30D7F8F4305B680022C7F8C0300D
:1011A000C7F8C420D7E930120B46DB183B6413465E
:1011B00042EB03037B64D7E91023D7E93201FFF741
:1011C00007F802460B4611463B4BA3FB01235B0984
:1011D000642202FB03F3CB1ADB0003F13202364B2D
:1011E000A3FB02235B095B0003F4F8731C44D7F8EC
:1011F000FC300022C7F8B830C7F8BC20D7E92E89E8
:1012000042464B469118B9635B41FB63D7E90E2315
:1012100041465118396349464B417B634FF0000208
:101220004FF00003D7E90CAB5946CB00514643EAD7
:1012300051735146CA0010461946034642469B1850
:10124000C7F8B0304B460A4642EB0303C7F8B43048
:10125000D7F8F4305B680022C7F8A830C7F8AC2094
:10126000D7E92A120B46DB18BB62134642EB030395
:10127000FB62D7E90A23D7E92C01FEF7A9FF024652
:101280000B460D4BA3FB02135B09642101FB03F327
:10129000D31ADB003233084AA2FB03235B0903F0B5
:1012A0000702D7F8F4301B6822449A6006E100BFB9
:1012B00000100140001401401F85EB51D7F8FC30AD
:1012C0000022C7F8A030C7F8A420D7E928894246F1
:1012D0004B46911839625B417B62D7E9082341464E
:1012E0005418494643EB01054FF000024FF000034C
:1012F000EB0043EA5473E20014461D464346E318EC
:10130000C7F898304B4645EB0303C7F89C30D7F835
:10131000F4305B680022C7F89030C7F894204FF093
:1013200000024FF00003D7E9244529468B002146EF
:1013300043EA917321468A00D7E92601FEF748FF68
:1013400002460B46604BA3FB02235B091C01D7F846
:10135000FC300022C7F88830C7F88C20D7E92289F2
:1013600042464B469118B9615B41FB61D7E90623C0
:1013700041465118396149464B417B614FF00002AB
:101380004FF00003D7E904AB5946CB00514643EA7E
:1013900051735146CA0010461946034642469B18EF
:1013A000C7F880304B460A4642EB0303C7F8843047
:1013B000D7F8F4305B680022BB67FA674FF0000291
:1013C0004FF00003D7E91E8949468B00414643EAA6
:1013D000917341468A00D7E92001FEF7F9FE0246E3
:1013E0000B461146384BA3FB01235B09642202FB29
:1013F00003F3CB1A1B013233334AA2FB03235B09ED
:1014000003F0F0031C44D7F8FC3000223B677A67F6
:10141000D7E91C8942464B469118B9605B41FB6095
:10142000D7E9022341465118396049464B417B6058
:101430004FF000024FF00003D7E900AB5946CB0054
:10144000514643EA51735146CA00104619460346B5
:1014500042469B18BB664B460A4642EB0303FB66BB
:10146000D7F8F4305B6800223B667A664FF00002E2
:101470004FF00003D7E9188949468B00414643EAFB
:10148000917341468A00D7E91A01FEF7A1FE024690
:101490000B460D4BA3FB02135B09642101FB03F315
:1014A000D31A1B013233084AA2FB03235B0903F062
:1014B0000F02D7F8F4301B6822449A6000BF07F58A
:1014C0008077BD46BDE8B08F1F85EB5180B586B0F3
:1014D00000AF78607B68002B01D1012367E27B6855
:1014E0001B6803F00103002B75D0884B9B6803F049
:1014F0000C03042B0CD0854B9B6803F00C03082BCA
:1015000012D1824B5B6803F48003B3F5800F0BD1DB
:101510007E4B1B6803F40033002B5BD07B685B6859
:10152000002B57D1012342E27B685B68B3F5803F13
:1015300006D1764B1B68754A43F4803313601DE077
:101540007B685B68B3F5A02F0CD1704B1B686F4AAA
:1015500043F4802313606D4B1B686C4A43F4803363
:1015600013600BE0694B1B68684A23F480331360F7
:10157000664B1B68654A23F4802313607B685B68B5
:10158000002B13D001F03CFA386108E001F038FA82
:1015900002463B69D31A642B01D9032307E25B4B54
:1015A0001B6803F40033002BF0D014E001F028FA9C
:1015B000386108E001F024FA02463B69D31A642B33
:1015C00001D90323F3E1514B1B6803F40033002BD3
:1015D000F0D100E000BF7B681B6803F00203002B22
:1015E00063D04A4B9B6803F00C03002B0BD0474B96
:1015F0009B6803F00C03082B1CD1444B5B6803F47D
:101600008003002B16D1414B1B6803F00203002B13
:1016100005D07B68DB68012B01D00123C7E13B4B80
:101620001B6823F0F8027B681B69DB003749134312
:101630000B603AE07B68DB68002B20D0344B012242
:101640001A6001F0DDF9386108E001F0D9F90246CD
:101650003B69D31A022B01D90323A8E12B4B1B684A
:1016600003F00203002BF0D0284B1B6823F0F80294
:101670007B681B69DB00254913430B6015E0244B95
:1016800000221A6001F0BCF9386108E001F0B8F9F5
:1016900002463B69D31A022B01D9032387E11B4B76
:1016A0001B6803F00203002BF0D17B681B6803F07A
:1016B0000803002B36D07B685B69002B16D0154BD6
:1016C00001221A6001F09CF9386108E001F098F9F4
:1016D00002463B69D31A022B01D9032367E10B4B66
:1016E0005B6F03F00203002BF0D01BE0094B0022DC
:1016F0001A6001F085F938610EE001F081F90246C7
:101700003B69D31A022B07D9032350E1003802406A
:1017100000004742800E4742884B5B6F03F0020394
:10172000002BEAD17B681B6803F00403002B00F058
:1017300097800023FB75814B1B6C03F08053002BBB
:101740000FD10023BB607D4B1B6C7C4A43F0805360
:1017500013647A4B1B6C03F08053BB60BB6801239E
:10176000FB75774B1B6803F48073002B18D1744B07
:101770001B68734A43F48073136001F041F93861C8
:1017800008E001F03DF902463B69D31A022B01D96A
:1017900003230CE16A4B1B6803F48073002BF0D029
:1017A0007B689B68012B06D1644B1B6F634A43F037
:1017B000010313671CE07B689B68052B0CD15F4B12
:1017C0001B6F5E4A43F0040313675C4B1B6F5B4A5D
:1017D00043F0010313670BE0584B1B6F574A23F08C
:1017E00001031367554B1B6F544A23F0040313671F
:1017F0007B689B68002B15D001F002F938610AE084
:1018000001F0FEF802463B69D31A41F28832934256
:1018100001D90323CBE0494B1B6F03F00203002BDC
:10182000EED014E001F0ECF838610AE001F0E8F8DD
:1018300002463B69D31A41F28832934201D903230D
:10184000B5E03E4B1B6F03F00203002BEED1FB7D96
:10185000012B05D1394B1B6C384A23F0805313649C
:101860007B689B69002B00F0A180344B9B6803F0E0
:101870000C03082B5CD07B689B69022B41D1314B58
:1018800000221A6001F0BCF8386108E001F0B8F8F5
:1018900002463B69D31A022B01D9032387E0274B69
:1018A0001B6803F00073002BF0D17B68DA697B685A
:1018B0001B6A1A437B685B6A9B011A437B689B6ABD
:1018C0005B08013B1B041A437B68DB6A1B061B4950
:1018D00013434B601B4B01221A6001F091F83861F1
:1018E00008E001F08DF802463B69D31A022B01D9BA
:1018F00003235CE0114B1B6803F00073002BF0D056
:1019000054E0104B00221A6001F07AF8386108E0C8
:1019100001F076F802463B69D31A022B01D9032362
:1019200045E0064B1B6803F00073002BF0D13DE04F
:101930007B689B69012B07D1012338E00038024006
:1019400000700040600047421B4B5B68FB607B6897
:101950009B69012B28D0FB6803F480027B68DB695C
:101960009A4221D1FB6803F03F027B681B6A9A42CE
:101970001AD1FA6847F6C07313407A68526A920126
:10198000934211D1FB6803F440327B689B6A5B0889
:10199000013B1B049A4207D1FB6803F070627B682D
:1019A000DB6A1B069A4201D0012300E0002318469F
:1019B0001837BD4680BD00BF0038024080B584B0F6
:1019C00000AF786039607B68002B01D10123CCE047
:1019D000684B1B6803F007033A689A420CD9654BC1
:1019E0003A68D2B21A70634B1B6803F007033A6877
:1019F0009A4201D00123B8E07B681B6803F0020320
:101A0000002B20D07B681B6803F00403002B05D05B
:101A1000594B9B68584A43F4E05393607B681B68BA
:101A200003F00803002B05D0534B9B68524A43F444
:101A300060439360504B9B6823F0F0027B689B6887
:101A40004D4913438B607B681B6803F00103002B37
:101A500044D07B685B68012B07D1474B1B6803F4BC
:101A60000033002B19D101237FE07B685B68022BD8
:101A700003D07B685B68032B07D13F4B1B6803F0E7
:101A80000073002B09D101236FE03B4B1B6803F06F
:101A90000203002B01D1012367E0374B9B6823F041
:101AA00003027B685B68344913438B6000F0A8FF36
:101AB000F8600AE000F0A4FF0246FB68D31A41F286
:101AC0008832934201D903234FE02B4B9B6803F0EC
:101AD0000C027B685B689B009A42EBD1254B1B682C
:101AE00003F007033A689A420CD2224B3A68D2B20A
:101AF0001A70204B1B6803F007033A689A4201D022
:101B0000012332E07B681B6803F00403002B08D03C
:101B1000194B9B6823F4E0527B68DB68164913433A
:101B20008B607B681B6803F00803002B09D0124B05
:101B30009B6823F460427B681B69DB000E491343FA
:101B40008B6000F021F802460B4B9B681B0903F0E9
:101B50000F030A49CB5C22FA03F3094A1360094BCD
:101B60001B68184600F008FF002318461037BD46D2
:101B700080BD00BF003C024000380240103C00081D
:101B800050000020540000202DE9B04F90B000AF6D
:101B900000237B630023FB6300233B630023BB63C1
:101BA000594B9B6803F00C03082B0DD0082B00F257
:101BB000A180002B02D0042B03D09BE0534BBB63CE
:101BC0009BE0534BBB6398E04F4B5B6803F03F03D4
:101BD0007B634D4B5B6803F48003002B28D04A4B9A
:101BE0005B689B0900223B627A623B6AC3F3080090
:101BF0000021474B03FB01F2002300FB03F31344D6
:101C0000434AA0FB0212FA620A46BA62FA6A134415
:101C1000FB627B6B0022BB61FA61D7E90623D7E93F
:101C20000A01FEF7D5FA02460B461346FB6353E062
:101C3000354B5B689B0900223B617A613B69C3F3CA
:101C4000080A4FF0000B52465B464FF000004FF081
:101C50000001590141EAD261500102460B46B2EB44
:101C60000A0863EB0B094FF000024FF000034FEA44
:101C7000891343EA98634FEA8812B2EB080463EBD6
:101C800009054FF000024FF00003EB0043EA5473E4
:101C9000E20014461D4614EB0A033B6045EB0B03C0
:101CA0007B604FF000024FF00003D7E90045294662
:101CB0008B02214643EA915321468A021046194677
:101CC0007B6B0022BB60FA60D7E90223FEF780FA43
:101CD00002460B461346FB630B4B5B681B0C03F081
:101CE000030301335B003B63FA6B3B6BB2FBF3F323
:101CF000BB6302E0054BBB6300BFBB6B18464037BC
:101D0000BD46BDE8B08F00BF003802400024F4009B
:101D100040787D0180B400AF034B1B681846BD4678
:101D20005DF8047B704700BF5000002080B500AF15
:101D3000FFF7F0FF0246054B9B689B0A03F0070381
:101D40000349CB5C22FA03F3184680BD00380240F9
:101D5000203C000880B500AFFFF7DCFF0246054BD2
:101D60009B685B0B03F007030349CB5C22FA03F388
:101D7000184680BD00380240203C000880B489B07D
:101D800000AF7860396000237B6100233B61002352
:101D9000BB610023FB616BE10122FB6902FA03F3E3
:101DA0007B613B681B687A6913403B613A697B69D8
:101DB0009A4240F05A813B685B6803F00303012BB1
:101DC00005D03B685B6803F00303022B30D17B68CE
:101DD0009B68BB61FB695B00032202FA03F3DB43F0
:101DE000BA691340BB613B68DA68FB695B0002FAC1
:101DF00003F3BA691343BB617B68BA699A607B6875
:101E00005B68BB610122FB6902FA03F3DB43BA6939
:101E10001340BB613B685B681B0903F00102FB696F
:101E200002FA03F3BA691343BB617B68BA695A606B
:101E30003B685B6803F00303032B17D07B68DB6808
:101E4000BB61FB695B00032202FA03F3DB43BA695F
:101E50001340BB613B689A68FB695B0002FA03F3BD
:101E6000BA691343BB617B68BA69DA603B685B6837
:101E700003F00303022B23D1FB69DA087B680832E5
:101E800053F82230BB61FB6903F007039B000F226C
:101E900002FA03F3DB43BA691340BB613B681A697A
:101EA000FB6903F007039B0002FA03F3BA691343CB
:101EB000BB61FB69DA087B680832B96943F8221014
:101EC0007B681B68BB61FB695B00032202FA03F3BA
:101ED000DB43BA691340BB613B685B6803F00302F4
:101EE000FB695B0002FA03F3BA691343BB617B68C9
:101EF000BA691A603B685B6803F44033002B00F05A
:101F0000B4800023FB60604B5B6C5F4A43F480430A
:101F100053645D4B5B6C03F48043FB60FB685B4A7E
:101F2000FB699B08023352F82330BB61FB6903F065
:101F300003039B000F2202FA03F3DB43BA69134049
:101F4000BB617B68524A93422BD07B68514A9342D3
:101F500025D07B68504A93421FD07B684F4A9342FA
:101F600019D07B684E4A934213D07B684D4A934206
:101F70000DD07B684C4A934207D07B684B4A934212
:101F800001D107230EE008230CE006230AE0052315
:101F900008E0042306E0032304E0022302E0012317
:101FA00000E00023FA6902F0030292009340BA694C
:101FB0001343BB613549FB699B080233BA6941F899
:101FC00023203B4B9B68BB613B69DB43BA691340F1
:101FD000BB613B685B6803F48013002B03D0BA69D4
:101FE0003B691343BB61324ABB699360304BDB688A
:101FF000BB613B69DB43BA691340BB613B685B680B
:1020000003F40013002B03D0BA693B691343BB618F
:10201000274ABB69D360264B5B68BB613B69DB43E6
:10202000BA691340BB613B685B6803F40033002B63
:1020300003D0BA693B691343BB611D4ABB69536056
:102040001B4B1B68BB613B69DB43BA691340BB6137
:102050003B685B6803F48033002B03D0BA693B69AB
:102060001343BB61124ABB691360FB690133FB6117
:10207000FB690F2B7FF690AE00BF00BF2437BD4633
:102080005DF8047B704700BF003802400038014013
:10209000000002400004024000080240000C024020
:1020A000001002400014024000180240001C0240D0
:1020B000003C014080B487B000AF786039600023F5
:1020C0003B610023FB600023BB6000237B61CDE00C
:1020D00001227B6902FA03F33B613A683B691340D2
:1020E000FB60FA683B699A4240F0BD80654A7B69B3
:1020F0009B08023352F82330BB607B6903F0030373
:102100009B000F2202FA03F3BA681340BB607B689E
:102110005D4A93422BD07B685C4A934225D07B6812
:102120005B4A93421FD07B685A4A934219D07B681E
:10213000594A934213D07B68584A93420DD07B682A
:10214000574A934207D07B68564A934201D10723EE
:102150000EE008230CE006230AE0052308E0042330
:1021600006E0032304E0022302E0012300E0002351
:102170007A6902F0030292009340BA689A4232D11F
:10218000494B1A68FB68DB43474913400B60464BD9
:102190005A68FB68DB43444913404B60424BDA68A2
:1021A000FB68DB4340491340CB603F4B9A68FB68B8
:1021B000DB433D4913408B607B6903F003039B00C5
:1021C0000F2202FA03F3BB602E4A7B699B0802339D
:1021D00052F82310BB68DA432A487B699B080A40FF
:1021E000023340F823207B681A687B695B00032177
:1021F00001FA03F3DB431A407B681A607B69DA0853
:102200007B68083253F822107B6903F007039B00B8
:102210000F2202FA03F3DB437A69D20819407B6884
:10222000083243F822107B68DA687B695B0003217F
:1022300001FA03F3DB431A407B68DA607B685A6873
:1022400001217B6901FA03F3DB431A407B685A6082
:102250007B689A687B695B00032101FA03F3DB4327
:102260001A407B689A607B6901337B617B690F2B25
:102270007FF62EAF00BF00BF1C37BD465DF8047B64
:10228000704700BF003801400000024000040240D7
:1022900000080240000C02400010024000140240FE
:1022A00000180240001C0240003C014080B483B092
:1022B00000AF78600B467B8013467B707B78002BE9
:1022C00003D07A887B689A6103E07B881A047B6874
:1022D0009A6100BF0C37BD465DF8047B7047000073
:1022E00080B586B000AF786000237B6100F088FB8A
:1022F00038617B68002B01D1012399E07B680222C1
:1023000083F835207B68002283F834207B681B68C3
:102310001A687B681B6822F001021A600FE000F067
:102320006FFB02463B69D31A052B08D97B68202234
:102330005A657B68032283F83520032378E07B68A5
:102340001B681B6803F00103002BE8D17B681B6846
:102350001B687B617A69384B13407B617B685A68E4
:102360007B689B681A437B68DB681A437B681B6940
:102370001A437B685B691A437B689B691A437B68D5
:10238000DB691A437B681B6A13437A6913437B61D9
:102390007B685B6A042B07D17B68DA6A7B681B6BFE
:1023A00013437A6913437B617B681B687A691A60FF
:1023B0007B681B685B697B617B6923F007037B613A
:1023C0007B685B6A7A6913437B617B685B6A042B79
:1023D00017D17B689B6A7A6913437B617B68DB6AF0
:1023E000002B0ED0786800F043F90346002B08D08C
:1023F0007B6840225A657B68012283F835200123DF
:1024000016E07B681B687A695A61786800F0FAF810
:102410000346FB607B68DB6D3F229A40FB689A6055
:102420007B6800225A657B68012283F835200023EF
:1024300018461837BD4680BD3F8010F080B584B087
:1024400000AF78607B68002B01D1012350E07B68EE
:1024500093F83530DBB2022B01D1022348E07B68D0
:102460001B681A687B681B6822F001021A607B688F
:102470001B6800221A607B681B6800225A607B6818
:102480001B6800229A607B681B680022DA607B6808
:102490001B6800221A617B681B6821225A617868D8
:1024A00000F0B0F80346FB607B680022DA637B68CB
:1024B00000221A647B6800225A647B6800229A64B6
:1024C0007B680022DA647B6800221A657B68DB6D1A
:1024D0003F229A40FB689A607B6800225A657B68BD
:1024E000002283F835207B68002283F83420002303
:1024F00018461037BD4680BD80B586B000AFF86085
:10250000B9607A603B600023FB75FB689B6D3B61A3
:10251000FB6893F83430012B01D1022340E0FB68C3
:10252000012283F83420FB6893F83530DBB2012BAD
:102530002FD1FB68022283F83520FB6800225A6500
:102540003B687A68B968F86800F02EF8FB68DB6DC4
:102550003F229A403B699A60FB681B681A68FB68D7
:102560001B6842F016021A60FB681B6C002B07D038
:10257000FB681B681A68FB681B6842F008021A6057
:10258000FB681B681A68FB681B6842F001021A604E
:1025900005E0FB68002283F834200223FB75FB7DF5
:1025A00018461837BD4680BD80B485B000AFF860CE
:1025B000B9607A603B60FB681B681A68FB681B683F
:1025C00022F480221A60FB681B683A685A60FB6834
:1025D0009B68402B08D1FB681B687A689A60FB688F
:1025E0001B68BA68DA6007E0FB681B68BA689A6023
:1025F000FB681B687A68DA6000BF1437BD465DF877
:10260000047B704780B485B000AF78607B681B683E
:10261000DBB2103B144AA2FB03231B09FB60134AE5
:10262000FB6813441B781A467B68DA65FB68032B4A
:1026300009D97B681B6823F47F7323F003031A1DF9
:102640007B689A6507E07B681B6823F47F7323F03F
:1026500003037A6893657B689B6D18461437BD4603
:102660005DF8047B704700BFABAAAAAA283C00080B
:1026700080B485B000AF78600023FB737B689B6AF1
:10268000BB607B689B69002B1FD1BB68032B56D8AE
:1026900001A252F823F000BFA9260008BB260008BB
:1026A000A92600083F2700087B68DB6A03F08073D7
:1026B000002B46D00123FB7343E07B68DB6AB3F158
:1026C000C07F40D10123FB733DE07B689B69B3F57C
:1026D000005F21D1BB68032B37D801A252F823F049
:1026E000F1260008F7260008F1260008092700084F
:1026F0000123FB7330E07B68DB6A03F08073002BFF
:1027000025D00123FB7322E07B68DB6AB3F1C07F35
:102710001FD10123FB731CE0BB68022B03D9BB68EC
:10272000032B03D018E00123FB7315E07B68DB6A01
:1027300003F08073002B0ED00123FB730BE000BF6E
:102740000AE000BF08E000BF06E000BF04E000BFF1
:1027500002E000BF00E000BFFB7B18461437BD4617
:102760005DF8047B704700BF80B485B000AF78602F
:102770007B6803F00703FB600C4BDB68BB60BA6847
:102780004FF6FF031340BB60FB681A02BB6813439C
:1027900043F0BF6343F40033BB60044ABB68D360BB
:1027A00000BF1437BD465DF8047B704700ED00E0C4
:1027B00080B400AF044BDB681B0A03F00703184624
:1027C000BD465DF8047B704700ED00E080B483B047
:1027D00000AF03463960FB7197F90730002B0ADB25
:1027E0003B68DAB20C4997F907301201D2B20B44B8
:1027F00083F800230AE03B68DAB20849FB7903F06A
:102800000F03043B1201D2B20B441A7600BF0C37FF
:10281000BD465DF8047B704700E100E000ED00E09C
:1028200080B489B000AFF860B9607A60FB6803F0EB
:102830000703FB61FB69C3F10703042B28BF0423D3
:10284000BB61FB690433062B02D9FB69033B00E043
:1028500000237B614FF0FF32BB6902FA03F3DA43D6
:10286000BB681A407B699A404FF0FF317B6901FADF
:1028700003F3D9437B680B40134318462437BD4606
:102880005DF8047B7047000080B582B000AF7860CF
:102890007B68013BB3F1807F01D301230FE00A4A3B
:1028A0007B68013B53600F214FF0FF30FFF78EFF35
:1028B000054B00229A60044B07221A600023184639
:1028C0000837BD4680BD00BF10E000E080B582B093
:1028D00000AF78607868FFF747FF00BF0837BD4654
:1028E00080BD80B586B000AF0346B9607A60FB73E7
:1028F00000237B61FFF75CFF78617A68B9687869CB
:10290000FFF78EFF024697F90F3011461846FFF782
:102910005DFF00BF1837BD4680BD80B582B000AFF7
:1029200078607868FFF7B0FF034618460837BD4661
:1029300080BD000080B500AF0E4B1B680D4A43F40C
:10294000007313600B4B1B680A4A43F480631360E7
:10295000084B1B68074A43F4807313600320FFF79A
:10296000B5FF0F2000F008F800F0AEF9002318467C
:1029700080BD00BF003C024080B582B000AF7860EF
:10298000124B1A68124B1B7819464FF47A73B3FB3B
:10299000F1F3B2FBF3F31846FFF7BFFF0346002B3A
:1029A00001D001230EE07B680F2B0AD80022796842
:1029B0004FF0FF30FFF795FF064A7B681360002356
:1029C00000E0012318460837BD4680BD50000020B6
:1029D000580000205400002080B400AF064B1B7844
:1029E0001A46064B1B681344044A136000BFBD46D9
:1029F0005DF8047B704700BF58000020D80100201C
:102A000080B400AF034B1B681846BD465DF8047BDD
:102A1000704700BFD801002080B500AFFFF78AFFE4
:102A200000F00EF800F0BAF800F09EF800F072F82E
:102A300000F01EFB00F06FFA00F074FA00BFFDE733
:102A400080B594B000AF07F1200330220021184672
:102A5000FDF7A6FD07F10C0300221A605A609A6088
:102A6000DA601A610023BB60284B1B6C274A43F0D5
:102A700080531364254B1B6C03F08053BB60BB6811
:102A800000237B60224B1B68214A43F48043136080
:102A90001F4B1B6803F480437B607B6801233B6210
:102AA0004FF480337B620223BB634FF48003FB63EC
:102AB00019233B644FF4A8737B640223BB64042393
:102AC000FB6407F120031846FEF700FD0346002BC8
:102AD00001D000F0C3F80F23FB6002233B61002309
:102AE0007B614FF4A053BB614FF48053FB6107F14E
:102AF0000C0305211846FEF761FF0346002B01D0A9
:102B000000F0ACF800BF5037BD4680BD0038024031
:102B10000070004080B500AF114B124A1A60104B94
:102B20004FF4E1325A600E4B00229A600C4B0022A7
:102B3000DA600B4B00221A61094B0C225A61084BD8
:102B400000229A61064B0022DA610548FDF770FE0B
:102B50000346002B01D000F081F800BF80BD00BF0C
:102B6000DC0100200010014080B483B000AF0023DE
:102B70007B60094B1B6B084A43F480031363064BCD
:102B80001B6B03F480037B607B6800BF0C37BD4682
:102B90005DF8047B704700BF0038024080B58AB002
:102BA00000AF07F1140300221A605A609A60DA60DD
:102BB0001A6100233B61274B1B6B264A43F0040339
:102BC0001363244B1B6B03F004033B613B6900233D
:102BD000FB60204B1B6B1F4A43F0800313631D4BAC
:102BE0001B6B03F08003FB60FB680023BB60194B89
:102BF0001B6B184A43F010031363164B1B6B03F057
:102C00001003BB60BB6800237B60124B1B6B114A37
:102C100043F0010313630F4B1B6B03F001037B6055
:102C20007B6801224FF460410B48FFF73FFB4FF4F4
:102C300060437B610123BB610023FB6100233B6296
:102C400007F1140319460448FFF798F800BF283726
:102C5000BD4680BD003802400010024080B400AF85
:102C600072B600BF00BFFDE780B400AF00BFFDE754
:102C700080B400AF00BFFDE780B400AF00BFFDE748
:102C800080B400AF00BFFDE780B400AF00BFFDE738
:102C900080B400AF00BFBD465DF8047B704780B4D0
:102CA00000AF00BFBD465DF8047B704780B400AF45
:102CB00000BFBD465DF8047B704780B500AFFFF7ED
:102CC0008BFE00BF80BD000080B483B000AF002346
:102CD0007B60104B5B6C0F4A43F4804353640D4B95
:102CE0005B6C03F480437B607B6800233B60094B93
:102CF0001B6C084A43F080531364064B1B6C03F0B3
:102D000080533B603B6800BF0C37BD465DF8047BD9
:102D1000704700BF0038024080B58AB000AF7860CD
:102D200007F1140300221A605A609A60DA601A618F
:102D30007B681B68314A93425BD100233B61304B77
:102D40005B6C2F4A43F0100353642D4B5B6C03F014
:102D500010033B613B690023FB60294B1B6B284A36
:102D600043F001031363264B1B6B03F00103FB606D
:102D7000FB684FF4C0637B610223BB610023FB61EE
:102D800003233B6207237B6207F1140319461D48A6
:102D9000FEF7F4FF1C4B1D4A1A601B4B4FF00062FC
:102DA0005A60194B00229A60174B0022DA60164BCA
:102DB0004FF480621A61144B00225A61124B0022B8
:102DC0009A61114B4FF48072DA610F4B00221A6244
:102DD0000D4B00225A620C48FFF782FA0346002B83
:102DE00001D0FFF73BFF7B68074ADA63064A7B683E
:102DF000936300BF2837BD4680BD00BF001001406F
:102E000000380240000002402402002040640240DA
:102E100080B582B000AF78607B681B680B4A934234
:102E20000FD10B4B5B6C0A4A23F0100353644FF431
:102E3000C0610848FFF73EF97B68DB6B1846FFF777
:102E4000FDFA00BF0837BD4680BD00BF001001403D
:102E5000003802400000024080B586B000AF7860C4
:102E6000144A154BD31A7B617B693B61134B1B687A
:102E7000002B02D1114B124A1A60104B1A687B6862
:102E800013443A699A4207D200F068FB03460C22C9
:102E90001A604FF0FF3309E0084B1B68FB60074BDB
:102EA0001A687B681344054A1360FB681846183794
:102EB000BD4680BD00000220000400008402002006
:102EC000B0040020DFF834D0FDF7A0FC0C480D4919
:102ED0000D4A002302E0D458C4500433C4188C4275
:102EE000F9D30A4A0A4C002301E013600432A242DB
:102EF000FBD3FDF75DFBFFF78FFD7047000002205D
:102F00000000002074000020743C000874000020C1
:102F1000AC040020FEE780B400AF00BFBD465DF802
:102F2000047B704780B500AF002000F013FA034621
:102F3000002BF9D0002000F04DFA03461A46024952
:102F4000002000F08DFAEFE7043C000880B487B061
:102F500000AFF860B9607A600123FB75FB6800225E
:102F60001A60FB6800225A60FB687A689A60FB6806
:102F70000122DA60FB68BA681A61FB7D18461C37CB
:102F8000BD465DF8047B704780B489B000AFF8603F
:102F9000B9607A600123FB770023BB6142E0FB68E4
:102FA0001B69002B25D0BB68002B22D0FB681A6957
:102FB000FB685B68F968C96801FB03F313443B6174
:102FC00000237B610AE07B693A691A447B69B9682E
:102FD0000B4412781A707B6901337B61FB68DB68F4
:102FE0001A467B699342EEDBFB68DB68BA681344E0
:102FF000BB60FB685A68FB681B689A420CD0FB6890
:103000005B680133FA689268B3FBF2F101FB02F2EC
:103010009A1AFB685A6002E00023FB7706E0BB695E
:103020000133BB617B68BA699A42B8DBFB7F184603
:103030002437BD465DF8047B704780B485B000AF8F
:1030400078607B689A687B681B681A447B685B6859
:10305000D31A7A689268B3FBF2F101FB02F29B1A71
:10306000FB60FB6818461437BD465DF8047B70476B
:1030700080B582B000AF00F017F800F04BF80023E5
:103080007B6009E07B68DBB24FF4E131184600F069
:103090008FF87B6801337B607B68002BF2DD0123B6
:1030A00018460837BD4680BD80B582B000AF00230A
:1030B0007B6007E07B68DBB2184600F00BF87B68AA
:1030C00001337B607B68022BF4DD0123184608374F
:1030D000BD4680BD80B582B000AF0346FB71FB7971
:1030E000022B11D8FB790A4A52F83300FB79084ABF
:1030F000DB0013449988FB79054ADB001344DB7934
:103100001A46FFF7D3F800E000BF0837BD4680BD80
:103110005C00002080B582B000AF00237B6037E008
:1031200021497A6813461B0113445B010B440022BA
:103130001A701D497A6813461B0113445B010B4446
:1031400004334FF4E1321A6017497A6813461B01C1
:1031500013445B010B4403F5077300221A607A687D
:1031600013461B0113445B0108330F4A98187A6811
:1031700013461B0113445B0118330B4A13440433F9
:103180004FF400721946FFF7E1FE7B6801337B6064
:103190007B68002BC4DD054B01221A70034B1B78A2
:1031A00018460837BD4680BD8C02002088020020EA
:1031B00080B584B000AF03463960FB710023FB7318
:1031C000FB79002B40F0BC80FA79604913461B0163
:1031D00013445B010B4403F507735D4A1A60FA79E7
:1031E0005A4913461B0113445B010B4403F5077353
:1031F0001B683A685A60FA79544913461B01134414
:103200005B010B4404333A681A60FA794F4913465C
:103210001B0113445B010B4400221A70FA794B49DD
:1032200013461B0113445B010B4403F507731B6832
:103230001846FDF74DFBFA79444913461B01134428
:103240005B010B4403F507731B681846FDF7F0FAA2
:103250000346002B08D1FA793C4913461B0113445D
:103260005B010B4401221A70FA79384913461B019D
:1032700013445B010B441B78002B57D0FA79334978
:1032800013461B0113445B010B4403F507731868D5
:10329000FA7913461B0113445B0118332B4A13447C
:1032A00004334FF400721946FDF7CFFB0346BB739E
:1032B000BB7B002B08D0FA79244913461B01134429
:1032C0005B010B4400221A70FA79204913461B0156
:1032D00013445B010B4410331968FA791B481346F9
:1032E0001B0113445B01034403F507731B68DB6B8D
:1032F0001B685B68FA79C91A144813461B0113440A
:103300005B01034408331960F979FA790F480B46D9
:103310001B010B445B010344083319680B48134637
:103320001B0113445B0103440C331960FA7907490C
:1033300013461B0113445B010B441B78FB7300E035
:1033400000BFFB7B18461037BD4680BD8C020020B5
:10335000DC01002080B584B000AF0346FB71002380
:10336000FB60FB79002B01D000232CE0FA7918498F
:1033700013461B0113445B010B4410331968FA799F
:10338000134813461B0113445B01034403F5077301
:103390001B68DB6B1B685B68FA79C91A0C4813461B
:1033A0001B0113445B01034408331960FA79134687
:1033B0001B0113445B010833054A13441846FFF709
:1033C0003CFEF860FB6818461037BD4680BD00BF64
:1033D0008C02002080B584B000AF0346FB7100234F
:1033E000FB73FA7913461B0113445B010833064A49
:1033F000134407F10F0101221846FFF7C5FDFB7BBF
:1034000018461037BD4680BD8C02002080B586B0BE
:1034100000AF0346B9607A60FB7300237B61FB7BDE
:10342000002B01D0002315E0FA7B0C4913461B0149
:1034300013445B010B4403F5077318687B689AB269
:103440006423B968FDF776FA0346002B01D17B6847
:103450007B617B6918461837BD4680BD8C02002011
:103460000EB480B5C7B000AF024607F58C73A3F267
:1034700011131A7007F58C73A3F211131B78002B2C
:1034800001D0002325E007F5947207F58C73A3F5AE
:1034900086731A6007F58C73A3F5867307F1100025
:1034A0001B68D7F824214FF4807100F049F8C7F861
:1034B0001401D7F8142107F1100107F58C73A3F25A
:1034C00011131B781846FFF7A1FFC7F81001D7F8B2
:1034D0001031184607F58E77BD46BDE8804003B031
:1034E000704730B51446002C9BB005461A4605DAE5
:1034F0008B2303604FF0FF301BB030BD4FF40273DD
:10350000ADF80C304FF00003199314BF04F1FF33F2
:103510002346029305934FF6FF7300910491ADF893
:103520000E3069461E9B00F07BF8431CBCBF8B230A
:103530002B60002CE0D0009B00221A70DCE700001A
:1035400007B5009313460A46014603480068FFF793
:10355000C8FF03B05DF804FB00000020014B1868B1
:10356000704700BF000000202DE9F0478E681F461D
:10357000BE420B6882460C4690462DD8B1F90C200D
:1035800012F4906F26D06569096905EB4505A3EB38
:10359000010905EBD5757B1C4B446D109D4238BF6E
:1035A0001D46530527D52946FDF794F8064660B316
:1035B00021694A4600F0D6FAA38923F4906343F0C8
:1035C0008003A381266165614E44A5EB0905266051
:1035D000A5603E46BE4200D93E462068324641467E
:1035E00000F0A6FAA3689B1BA36023683344236002
:1035F0000020BDE8F0872A4600F0C2FA06460028FF
:10360000E0D121695046FCF7F9FF0C23CAF80030DD
:10361000A38943F04003A3814FF0FF30E9E70000A6
:103620002DE9F04F98468B891B069DB007460D4645
:10363000144610D50B6973B94021FDF74BF828608B
:10364000286130B90C233B604FF0FF301DB0BDE85E
:10365000F08F40236B610023099320238DF82930DC
:10366000CDF80C803023DFF89C818DF82A304FF0A4
:10367000010923469A4613F8012B0AB1252AF9D1EC
:10368000BAEB040B0BD05B46224629463846FFF7BF
:103690006BFF013000F0A780099A5A4409929AF80A
:1036A0000030002B00F09F8000234FF0FF32CDE967
:1036B00005230AF1010A049307938DF853301A93F6
:1036C0005446052214F8011B4E48FCF719FF049AD2
:1036D000D8B9D00644BF20238DF85330110744BF1A
:1036E0002B238DF853309AF800302A2B15D0079AE7
:1036F000544600204FF00A0C214611F8013B303BA4
:10370000092B4BD9B0B1079214E0A0EB080309FADA
:1037100003F313430493A246D2E7039B191D1B68CE
:103720000391002BBBBF5B4242F002020793079359
:10373000B8BF049223782E2B0AD163782A2B32D17A
:10374000039B1A1D1B68039243EAE373023405933B
:10375000DFF8C0A0217803225046FCF7D1FE38B133
:10376000049BA0EB0A0040228240134301340493DF
:1037700014F8011B24488DF828100622FCF7C0FE1F
:10378000002836D0214B1BBB039B073323F00703D4
:1037900008330393099B334409936AE70CFB023215
:1037A0000C460120A8E700230134059319464FF089
:1037B0000A0C204610F8012B303A092A03D9002BB5
:1037C000C6D00591C4E70CFB012104460123F0E7B4
:1037D00003AB00932A460E4B04A93846AFF3008092
:1037E000421C0646D6D1AB895B063FF52DAF099842
:1037F0002CE703AB00932A46054B04A9384600F09A
:1038000079F8EDE7303C00083A3C00080000000081
:1038100069350008363C00082DE9F0471646984601
:103820008A680B69DDF820909342B8BF1346336075
:1038300091F8432007460C460AB1013333602368F0
:10384000990642BF336802333360256815F00605D8
:1038500006D104F1190AE36832689B1AAB4226DCF0
:1038600094F843302268003B18BF012392062BD402
:1038700004F1430241463846C84701301ED0236850
:10388000226903F00603042B02BFE5683368ED1AD2
:10389000A3680CBF25EAE57500259342C4BF9B1AB7
:1038A000ED1800261A34B5421AD1002008E0012391
:1038B000524641463846C847013003D14FF0FF30E9
:1038C000BDE8F0870135C6E7E1185A1C302081F8C1
:1038D0004300224494F8451082F843100233C7E7AE
:1038E0000123224641463846C8470130E6D001361A
:1038F000D9E700002DE9FF470F7E0C9E782F9146F7
:1039000080460C469A4601F1430207D8622F0AD836
:10391000002F00F0D180582F00F0B88004F142064B
:1039200084F842703AE0A7F16303152BF6D801A1A1
:1039300051F823F08D390008A13900081D3900081D
:103940001D3900081D3900081D390008A13900087B
:103950001D3900081D3900081D3900081D390008EF
:103960009F3A0008CB390008593A00081D39000871
:103970001D390008C13A00081D390008CB3900087C
:103980001D3900081D390008613A000833681A1D06
:103990001B68326004F1420684F8423001239CE047
:1039A00033682068191D3160060601D51D6803E0E3
:1039B0004506FBD5B3F90050002D03DA2D236D42E7
:1039C00084F8433058480A2311E021683368080618
:1039D00053F8045B02D4490648BFADB26F2F52487A
:1039E000336014BF0A230823002184F8431066685B
:1039F000A660002E05DB21682E4321F00401216022
:103A00004BD01646B5FBF3F103FB1157C75D06F823
:103A1000017D2F46BB420D46F4D9082B0BD12368FC
:103A2000DF0708D5236961689942DEBF302306F8B5
:103A3000013C06F1FF36921B2261CDF800A04B46F7
:103A400003AA21464046FFF7E7FE01304AD14FF076
:103A5000FF3004B0BDE8F087236843F02003236003
:103A60003248782784F84570236831681F0651F87A
:103A7000045B02D45F0648BFADB23160D90744BFD2
:103A800043F0200323601DB11023ADE72648E9E78A
:103A9000236823F020032360F6E71646BDE733686A
:103AA00025686169181D30602E061B6801D51960F4
:103AB00002E06806FBD51980002323611646BCE7A7
:103AC00033681A1D32601E68626800213046FCF7B8
:103AD00017FD08B1801B606063682361002384F8D0
:103AE0004330AAE72369324649464046D047013071
:103AF000ADD023689B0713D4E068039B9842B8BFFE
:103B00001846A6E70123324649464046D0470130D1
:103B10009DD00135E36803995B1AAB42F2DCEBE719
:103B2000002504F11906F5E7413C0008523C000865
:103B3000884210B501EB020402D98442234607D81B
:103B4000431EA14208D011F8012B03F8012FF8E71A
:103B5000024401468A4200D110BD13F8014D02F81B
:103B6000014DF7E70A44914200F1FF3300D170475D
:103B700010B511F8014B03F8014F9142F9D110BD76
:103B80002DE9F041074614460D4621B9BDE8F04144
:103B90001146FCF79FBD2AB9FCF730FD25462846A3
:103BA000BDE8F08100F01AF88442064602D8B4EB72
:103BB000500FF4D821463846FCF78CFD804608B9F2
:103BC0004546ECE7B4422246294628BF3246FFF775
:103BD000C9FF29463846FCF711FDF1E751F8043CCE
:103BE000181F002BBCBF0B58C0187047F8B500BF9A
:103BF000F8BC08BC9E467047F8B500BFF8BC08BCCE
:043C00009E46704725
:103C04007278203A20307825580A0000000000001D
:103C14000000000001020304060708090000000078
:103C2400010203040006101600061016232D302B83
:103C34002000686C4C0065666745464700303132A9
:103C44003334353637383941424344454600303100
:103C5400323334353637383961626364656600005F
:083C64009CC5FF7F0100000078
:043C6C00B501000896
:043C700091010008B6
:103C7400040000200000000090000020F800002054
:103C840060010020000000000000000000000000AF
:103C94000000000000000000000000000000000020
:103CA4000000000000000000000000000000000010
:103CB4000000000000000000000000000000000000
:103CC4000024F40010000000010000000010024075
:103CD40000200001001002400040000100100240DA
:043CE400008000015B
:0400000508002EC5FC
:00000001FF
